:100000000C94E0040C94FD040C94FD040C94F6286C
:100010000C94FD040C94FD040C94FD040C94FD045C
:100020000C94FD040C94FD040C942E160C94EA150B
:100030000C949B220C94FD040C94FD040C94FD0480
:100040000C94FD040C94FD040C94FD040C94FD042C
:100050000C94FD040C9407170C94FD040C94FD04FF
:100060000C94FD040C94FD040C94FD040C94FD040C
:100070000C94FD040C94FD040C94FD040C94FD04FC
:100080000C94FD040C94FD040C94FD040C94FD04EC
:100090000C94FD040C94FD040C94FD040C94FD04DC
:1000A0000C94FD040C94FD040C94FD042900140030
:1000B0001A0008001500170000002B0004001600AD
:1000C000070009000A000000E1001D001B000600F7
:1000D000190005000000E101E000E000E300E2009B
:1000E00021522C002A00130012000C0018001C00E2
:1000F0000000340033000F000E000D000B00000064
:100100001E7C3800370036001000110000004F0040
:10011000520051005000E60022522C0000001E0048
:100120001F0020002100220000002B012E001E02D3
:100130002E0233022D0000000100240231022502AC
:10014000220221020000390001000100010001002B
:1001500001000100010027002600250024002300E3
:1001600000004C0031002F0026022F023502000053
:1001700001000100300027023002350000000100BC
:100180000100010001000100010001003A003B00F4
:100190003C003D003E003F00000001004A004D00D1
:1001A0004B004E00010000000100010001000100B1
:1001B0000100010000000100010001000100010038
:1001C000000001004500440043004200410040009F
:1001D0000000010001000100010001000100000019
:1001E0000100010001000100010001000000AE005B
:1001F000A900AA00E60046000100010000DA028121
:10020000FFD9F1DB20A4A62EAF00A0C0D30000A12F
:10021000C8D30000AED580A81F408D142000000474
:10022000643214783C1E0001010101010101010149
:100230000202020202020202020303030303030397
:100240000304040404040404050505050506060664
:100250000606070707070708080808090909090A21
:100260000A0A0B0B0B0C0C0C0D0D0D0E0E0E0F0FC6
:100270000F10101111111212131314141515161654
:100280001717181819191A1A1B1B1C1D1D1E1E1FC3
:100290002020212222232424252626272829292A12
:1002A0002B2C2D2D2E2F303132323334353637383A
:1002B000393A3B3C3D3E3F40414243444546474836
:1002C000494A4C4D4E4F50515354555658595A5B0C
:1002D0005D5E5F616264656668696B6C6D6F7072AC
:1002E000737577787A7B7D7E8082838587888A8C18
:1002F0008E8F91939596989A9C9EA0A2A3A5A7A94C
:10030000ABADAFB1B3B5B7BABCBEC0C2C4C6C9CB42
:10031000CDCFD1D4D6D8DBDDDFE2E4E7E9EBEEF0F8
:10032000F3F5F8FAFDFFFFAA7F554000AF00AE805D
:100330008182838485868788898A8B8C8D8E8F9035
:1003400091929394A0A1A2A3A4A5A6A7A8A9AAABA1
:10035000ACADAEAFB0B1B2B3B4C0C1C2C3C4C5C618
:10036000C7C8C9CACBCCCDCECFD0D1D2D3D4000A46
:10037000000A00959600B5B600979800B7B800053A
:10038000010980A101850319012AB700150126B7CB
:1003900000950175108100C0050C0901A1018504BB
:1003A00019012AA002150126A002950175108100ED
:1003B000C005010906A101050719E029E715002577
:1003C00001950875018102950175088101050719DC
:1003D0000029FF150026FF00950675088100050815
:1003E0001901290515002501950575019102950151
:1003F00075039101C009023B00020100A0FA090443
:100400000000010301010009211101000122440043
:100410000705810308000109040100010300000031
:100420000921110100012232000705820320000189
:100430001201000200000008653204000100010200
:1004400000012203480065006C006900780020006C
:1004500072006500760033002000340072006F00E7
:1004600077007300000014037900750073006800C2
:1004700061006B006F0062006F000000040309045C
:100480000000000000003E5B4F5B3E003E6B4F6B88
:100490003E001C3E7C3E1C00183C7E3C18001C5755
:1004A0007D571C001C5E7F5E1C0000183C1800007D
:1004B000FFE7C3E7FF00001824180000FFE7DBE7B1
:1004C000FF0030483A060E00262979292600407F91
:1004D00005050700407F05253F005A3CE73C5A00D0
:1004E0007F3E1C1C0800081C1C3E7F0014227F223B
:1004F00014005F5F005F5F0006097F017F000066F8
:1005000089956A0060606060600094A2FFA2940018
:1005100008047E04080010207E20100008082A1C11
:100520000800081C2A0808001E10101010000C1EDD
:100530000C1E0C0030383E383000060E3E0E060011
:1005400000000000000000005F000000000700073E
:100550000000147F147F1400242A7F2A1200231322
:100560000864620036495620500000080703000066
:10057000001C224100000041221C00002A1C7F1C9C
:100580002A0008083E0808000080703000000808B3
:100590000808080000006060000020100804020045
:1005A0003E5149453E0000427F40000072494949A2
:1005B00046002141494D33001814127F1000274591
:1005C000454539003C4A494931004121110907009C
:1005D000364949493600464949291E0000001400A1
:1005E00000000040340000000008142241001414F0
:1005F00014141400004122140800020159090600D5
:100600003E415D594E007C1211127C007F494949E0
:1006100036003E41414122007F4141413E007F4939
:10062000494941007F09090901003E4141517300D8
:100630007F0808087F0000417F4100002040413FC3
:1006400001007F08142241007F40404040007F02AB
:100650001C027F007F0408107F003E4141413E00A4
:100660007F09090906003E4151215E007F091929D1
:10067000460026494949320003017F0103003F40FB
:1006800040403F001F2040201F003F4038403F00B7
:100690006314081463000304780403006159494D8E
:1006A0004300007F41414100020408102000004146
:1006B00041417F00040201020400404040404000EC
:1006C0000003070800002054547840007F28444469
:1006D0003800384444442800384444287F003854C3
:1006E0005454180000087E09020018A4A49C780045
:1006F0007F080404780000447D4000002040403D15
:1007000000007F102844000000417F4000007C046E
:10071000780478007C0804047800384444443800A5
:10072000FC182424180018242418FC007C08040455
:10073000080048545454240004043F4424003C401E
:1007400040207C001C2040201C003C4030403C00ED
:100750004428102844004C9090907C004464544CF1
:10076000440000083641000000007700000000410E
:10077000360800000201020402003C2623263C0049
:1007800003071F7FFFFFFEF8F0C020F8FEFFFE7991
:10079000271F7FFFFFFEF8F0C020F8FEFFFF7F3F1E
:1007A0003F7FFFFEF8F0C000000000FFFFFFFFFFEB
:1007B000FF00000000000000FF7F7F7FBFBFC0C0C0
:1007C000C0E0E0E0E0F0F0F0F878787C3C3CFEFE41
:1007D000FEFFFFFF0000000000000000000080801E
:1007E000BFBFDFDFEFEF0003071F7FFFFFFFFEF854
:1007F000E0C0E0F8FEFFFFFF7F1F07030000E0F00E
:10080000F0F0E0ECEEF7F37020007C7C7C7E007E64
:100810007E7E7F7F7F000080C0E07E5B4F5BFEC0FE
:100820000000C000DCD7DEDEDED7DC00C000000048
:1008300000000000000000000000000000000000B8
:1008400000000000C1F3CFBF7FFFFFFCFBE781008A
:1008500000000080E3CF3FFFFFFFFCFBE7810000CB
:10086000000081E7FFFFFFFF3C0000FFFFFFFFFFED
:10087000FFF8F8FC7C7E7E3EFEFFFFFFFFFFF7F7F0
:10088000F7FBFB7D7D7DBEBEBEDFDFE0E000FFFF4E
:10089000FFFFFFFF00FCFC7C7E7E3E3E1F1F1F0F04
:1008A000FFFFFFFFFFFF000000000081E7FFFFFFE9
:1008B000FFFFFFFFFFFFE7810000000000000F1FA8
:1008C0003F7F7F7F7F7F3F1E0C001F1F1F3F003F2A
:1008D0003F3F7F7F7F00307B7F7830202030787FE4
:1008E0003B0003000F7F0F0F0F7F0F00030000007E
:1008F00000000000000000000000000000000000F8
:1009000060707C7F7F7F7F1F0601030F3F7F7F7EAC
:100910007C7C7E7F7F7F1F0601070F3F7F7F7E7C71
:100920007C7E7F7F3F0F03000000007F7F7F7F7F03
:100930007F000000000000007F7F7F7F7F7F7D7D44
:100940003D3E1E1F1F1F0F0F0707070303007F7F7A
:100950007F7F7F7F7C7C7C7C7C7C7C7C7C7C7C0047
:100960007F7F7F7F7F7F004070787E7F7F7F3F0F1C
:100970000301030F3F7F7F7F7E78704000000000FF
:100980000000000000000000000000000000000067
:100990000000000000000000000000000000000057
:1009A0000000000000000000000000000000000047
:1009B0000000000000000000000000000000000037
:1009C00011241FBECFEFDAE0DEBFCDBF11E0A0E003
:1009D000B1E0E6E2F7E502C005900D92AC3EB1074A
:1009E000D9F725E0ACEEB1E001C01D92AD3DB207F4
:1009F000E1F70E94C2220C943D2B0C940000482F7A
:100A00002091CE039091950357E0291302C080E016
:100A1000089530E0529FF001539FF00D1124EA56E3
:100A2000FC4F8181681306C08081481303C0858113
:100A30008111EECF2F5F3F4F2770E7CFE8EDF0E059
:100A400080818E7F80831092E2001092DA001092F3
:100A5000E100A0EEB0E08C9181608C9380818F7773
:100A6000808319BCA7EDB0E08C918E7F8C93808140
:100A70008F7E808310927E0308952091E400309150
:100A8000E50095E6A9012091EC00822F817020FFFE
:100A900006C08091E80080FF06C080E008952091A4
:100AA000E80022FD1AC080918B03882389F08530ED
:100AB00089F08091EB0085FD0FC02091E40030911A
:100AC000E50042175307F9F29150E1F684E00895EA
:100AD00082E0089583E0089581E0089580918D0378
:100AE00087FF13C08091E80082FF06C08091E80074
:100AF0008B778093E80004C080918B038111F2CF43
:100B0000089580918B038823D9F38091E80080FFBA
:100B1000F8CF8091E8008E77ECCF982F9093E90082
:100B2000242F762F50E0891731F07091EC0020913E
:100B3000ED005091F00021FD07C09F5F973071F7E5
:100B40008093E90081E008953091EB003E7F30937F
:100B5000EB003091ED003D7F3093ED003091EB00E4
:100B600031603093EB007093EC002093ED005093D4
:100B7000F0002091EE0027FDE0CF80E00895B0E086
:100B8000A0E0E5ECF5E00C94302AC8EDD0E08881D7
:100B90008F7E8883E7EDF0E080818160808384E050
:100BA00082BF81E080937E0388818E7F888302EEFE
:100BB00010E0F80110821092DA0081EEC82ED12CDC
:100BC000F601108288818F77888388818068888386
:100BD00088818F7D888319BC10928B0310928C03BF
:100BE00010928A031092890390EEE92EF12CF701FE
:100BF00080818B7F808388818160888342E060E090
:100C000080E00E948D05F60180818E7F8083F8014F
:100C1000808181608083808188608083F70180810A
:100C20008E7F8083888180618883CDB7DEB7E8E0DE
:100C30000C944C2AFC0180919303909194038617A5
:100C40009707A0F06115710529F49091E8009E774F
:100C50009093E80090E06115710551F4911108C07E
:100C60008091E80082FF34C080E00895BC01F2CF9B
:100C700080918B038823C1F18530C1F18091E80018
:100C800083FD30C08091E80082FDEACF8091E800CA
:100C900080FFE1CF8091F3002091F200382F6115A1
:100CA000710519F02830310558F091E028303105F0
:100CB00009F090E02091E8002E772093E800CBCF58
:100CC00081918093F100615071092F5F3F4FE7CF11
:100CD00080918B03882341F0853041F08091E800BA
:100CE00083FFBECF81E0089582E0089583E00895F8
:100CF0000895089508958091800308952FB7F8947A
:100D000060917A0370917B0380917C0390917D03C5
:100D10002FBF0895E0EFF1E09191891303C0DF0147
:100D200011971C9291E0E63FF907B1F70895A0EF03
:100D3000B1E0EFEF90E02D91821751F0EF3F19F401
:100D4000211101C0E92F9F5F9630A9F7EF3F09F409
:100D500008950E2E000CFF0BE251FE4F8283089582
:100D6000A3E0B0E0E6EBF6E00C94362A209177039E
:100D70003091780328173907A1F090937803809376
:100D80007703E0917503F0917603309751F024E0FA
:100D900029839B838A830084F185E02DCE0101960F
:100DA00009952396E2E00C94522AA3E0B0E0EBED23
:100DB000F6E00C94362A20917303309174032817BF
:100DC0003907A1F09093740380937303E091750346
:100DD000F0917603309751F023E029839B838A8337
:100DE0000084F185E02DCE01019609952396E2E07D
:100DF0000C94522A80917103882359F0E091750375
:100E0000F0917603309729F00190F081E02D09955B
:100E1000089580E00895FC01680F791F8FEF91E33A
:100E20002191822728E030E087FF09C0880F8927B9
:100E300021503109C9F7E617F70791F70895880F90
:100E4000F7CF26E3611125E383B190E02F7002C054
:100E5000959587952A95E2F78170089526E36111AB
:100E600025E334B12F7081E090E001C0880F2A950E
:100E7000EAF7982F9095932394B995B1892B85B96A
:100E8000089590916B03E92FF0E040916C039F016E
:100E90002F5F3F4F2370332742171306A9F0E35902
:100EA000FC4F282F2F7780818078822B60FB87F979
:100EB00080839F5F937090936B03809169038F5F32
:100EC0008093690381E0089580E00895FA0181111B
:100ED00001C0FB0109950895E9E9F2E011828281E0
:100EE00084608283089560914F018091330380FF75
:100EF0000CC070E080914E0123E0829FC00111245C
:100F000084569D4F0E943C1108958091500190910C
:100F1000510123E0829FF0011124E456FD4F89170F
:100F200040F71182108212828F5F3396F8CF909132
:100F3000330390FF0EC0909150012091510133E096
:100F4000939FF0011124E456FD4F921718F00E9470
:100F5000730708958183608342839F5F3396F5CF43
:100F600080913303982F9C7F61F483708460809319
:100F7000330380913603893718F088E7809336036E
:100F800008958835B0F383708465F1CFAF92BF9236
:100F9000DF92EF92FF920F931F93CF93DF93082F6F
:100FA000162FE901E42FF0E0EA5DFD4F611110C05A
:100FB000E4915E2F4E2F4983E8835A83DF91CF91CE
:100FC0001F910F91FF90EF90DF90BF90AF90089529
:100FD000E62EF12C4491D42EE42FF0E026E0829FFF
:100FE000C00111242FEF30E0B9010E94122A802F96
:100FF00090E0880F991F55E5569FD001579FB00D7F
:1010000011248A1B9B0B982F990F890F5901AE1839
:10101000BF08AE9ED001AF9EB00DBE9EB00D112494
:101020005B2F189F80011124012F11275901A01A4D
:10103000B10AAE9E8001AF9E100DBE9E100D112410
:101040005901A81AB108AE9CC001AF9C900DBE9C7E
:10105000900D1124892F9927281B390B2E9FC00131
:101060002F9F900D3E9F900D1124E92F6230710546
:10107000A1F050F46115710509F49DCF613071053F
:1010800081F0EB2F512F97CF6430710569F080F01C
:101090006630710509F48FCFF4CFE42F4B2F592F11
:1010A0008ACFE42F412F87CFEB2F542F492F83CFA7
:1010B0004B2F5D2DE12F7FCFA3E0B0E0E2E6F8E01B
:1010C0000C94342A8C018091330380FF13C040912B
:1010D0003603493708F048E79E012F5F3F4F609184
:1010E0003503F80184810E94C6074B8169818A819A
:1010F0000E949707F80184818F5F84832396E4E040
:101100000C94502AA3E0B0E0E8E8F8E00C94342A0C
:101110008C018091320381110AC09E012F5F3F4FE5
:1011200048E76FEF0E94C6078A8180933203F80177
:101130006481613069F08091320340E0662361F0A0
:1011400040E0623011F44091320380E060E004C07E
:101150006091320340E080E00E949707F8018481AB
:1011600090E0019663E070E00E94692A84832396F0
:10117000E4E00C94502AEF92FF921F93CF93DF93F9
:10118000EC0110E0EE24EA94F12C60915201161764
:1011900070F00E9473079A818C8190FF2AC08F5F44
:1011A0008C83DF91CF911F91FF90EF900895209154
:1011B0005001422F410F5527551FCA019A01220F96
:1011C000331F280F391F24563D4F409136034937AE
:1011D00008F048E770E0C7010E94692A962F8C81C9
:1011E00060913503199F800D11240E94C6071F5F6F
:1011F000CCCF8150D5CF80E0089581E080939102DB
:101200000895F894E82FE295EF70F0E031A1282FCF
:101210002F7081E090E001C0880F2A95EAF7982F9F
:101220009095932391A392A1892B82A378940895FA
:101230000F931F9380917103882329F00E947E06EB
:101240001F910F9108950E947E06009166021091F1
:1012500067022091680230916902600F711F821F3E
:10126000931FEECF90913B0392FF10C041E0282FD7
:101270002471243009F040E031E0282F2871283013
:1012800009F030E0431711F02CE0822793FF10C0E3
:1012900041E0282F2471243109F040E031E0282F6B
:1012A0002871283109F030E0431711F02CE0822733
:1012B00030913C0330FF10C051E0282F21712130C4
:1012C00009F050E041E0282F2871283009F040E073
:1012D000541711F029E0822731FF10C041E0282F78
:1012E0002171213109F040E031E0282F28712831A7
:1012F00009F030E0431711F029E0822794FD877E42
:10130000089582389105B9F1B0F48133910509F45B
:101310007DC048F48932910509F46DC08A32910587
:1013200009F47BC008958533910509F45FC08933C2
:10133000910509F10895833E9105D9F138F4803E75
:10134000910529F1823E910579F10895863E910536
:10135000D9F1873E910509F43EC0843E910541F5DF
:1013600020913C0321FF24C080913B0384FD19C0E0
:1013700087EE90E0089520913B03237009F05AC056
:1013800020913C0323FF14C089E290E0089520914E
:101390003B0320FD38C030913C0330FF09C024FFDF
:1013A00043C090E080E0089520913B0322FDF7CFF9
:1013B000089520913B0322FD3AC030913C0330FD5B
:1013C00039C024FFF5CFEDCF20913B0323FFF0CFB1
:1013D00024FDE7CFCDCF20913B0323FD2EC03091DC
:1013E0003C0331FFEECF84EE90E0089520913B0363
:1013F00025FFDECFC9CF20913B0325FD21C02091E1
:101400003C0323FFD5CF89E390E0D2CF20913B036B
:1014100026FFCECF8AE290E0089520913B0326FF7D
:10142000C7CF81E390E0089583EE90E0089582EEC7
:1014300090E0089580EE90E0089586EE90E00895A3
:1014400085E390E00895972F7830B8F46730A8F4DA
:101450008330B0F470E027E0929F600D711D11247D
:10146000FB0198E3899FE00DF11D1124EE0FFF1F92
:10147000E455FF4F85919491089580E090E00895A0
:1014800081E0FCCF1F93CF93DF930E948109EC0191
:10149000C11580E5D807F0F5C11580E4D80708F03C
:1014A0009CC0C03ED10520F5CD3CD10508F082C0DE
:1014B000C83AD10578F4C53AD10508F073C0C130F7
:1014C000D10519F1209709F1C430D105F0F4D0E02D
:1014D000C0E01BC0C33CD105D0F7C85AD0E0CC0F48
:1014E000DD1FCE58DE4F0990D881C02DD4640DC0C9
:1014F000C11580E2D80708F0D1C0C11581E0D80736
:1015000008F05AC0C83ED10510F7CE01DF91CF9147
:101510001F910895C03682E5D80718F5C03482E5DA
:10152000D80708F06BC0C03282E5D80708F05FC06A
:10153000C11582E5D80708F497C02C2F269526956B
:1015400080E2289F900111248C2F8370C1E0D0E0AD
:1015500002C0CC0FDD1F8A95E2F7C22BD32BDD68CA
:10156000D4CFC03A82E5D80760F4C03882E5D80706
:1015700008F459C0CF71D0E0DC2FCC27C46FD06AFB
:10158000C4CFC03C82E5D80708F462C0C03E82E503
:10159000D80708F09CCFDC2FCC27CC27DF71C06F99
:1015A000D06AB3CFC55AD0E0C159DE4FC881D0E070
:1015B000D064ABCFD065A9CF8D2F0E943209182FF0
:1015C000CE0199270E948109C12FD0E0DC2FCC27C2
:1015D000CC27DF71C82BD92B98CFCE0199270E9439
:1015E0008109CC27DF70C82BD92BD06A8ECFCF7161
:1015F000D0E0DC2FCC27C16FD06A87CF2C2F269567
:101600002695277080E2289F900111248C2F8370EB
:10161000C1E0D0E002C0CC0FDD1F8A95E2F7C22BFB
:10162000D32BDC6872CF2C2F26952695277080E26D
:10163000289F900111248C2F8370C1E0D0E002C05C
:10164000CC0FDD1F8A95E2F7C22BD32BDA685DCF72
:101650008C2F8F710E943209C82FD0E0DC2FCC274D
:10166000CC27DF71D06251CF8C2F8F710E9432094D
:1016700055E0D695C7955A95E1F7CF70D0E0DC2FAD
:10168000CC27282F30E084FF05C044E0220F331F11
:101690004A95E1F7C22BD32BD06937CF8D2F8F71AD
:1016A0000E943209182FCE0199270E948109C12F6B
:1016B000D0E0DC2FCC27CC27DF71C82BD92BD2CFA1
:1016C0008095909126029823909326020895809108
:1016D000CE0390919503981301C008958F5F877092
:1016E000FACFB0E0A0E0E7E7FBE00C942F2A7C0102
:1016F00000913D0310913E03809174029091750218
:10170000082B192BCFE0D0E0CC24C394D12CBC2ED5
:10171000C6010C2E02C0880F991F0A94E2F780239D
:101720009123892B49F4219790F7B12C8B2DCDB7BC
:10173000DEB7E9E00C944B2AB7018C2F0E94230AF4
:101740000E94420A019779F3F1CFCF93DF93EC0126
:101750000E94710BBE010E94230A0E94420ADF917F
:10176000CF910895983078F5873068F5E82FF0E04C
:1017700087E0989FE00DF11D11249E2F977083E064
:10178000F695E7958A95E1F7EE0FFF1FEE0FFF1F25
:10179000E850FE4F50E040E080E0219130E0092E1B
:1017A00002C0369527950A94E2F721703327042E5C
:1017B00001C0220F0A94EAF7822B4F5F5F4F44303B
:1017C000510559F7089580E00895983098F58730CD
:1017D00088F5E82FF0E087E0989FE00DF11D1124D7
:1017E0008E2F877041E001C0440F8A95EAF783E0AD
:1017F000F695E7958A95E1F7EE0FFF1FEE0FFF1FB5
:10180000E850FE4F30E020E070E05191DF01119789
:10181000CB01022E02C0969587950A94E2F781705B
:1018200081958527842385278C932F5F3F4F243014
:10183000310559F7089590933E0380933D03089531
:1018400021E030E002C0220F331F8A95E2F7209595
:10185000309580913D0390913E03822393230E9413
:101860001B0C089590911B028095892380931B0285
:10187000282F277069F4891759F090913C0392FF43
:1018800007C08695869586950E94200C10921B02B3
:10189000089521E030E002C0220F331F8A95E2F75D
:1018A00080913D0390913E03822B932B0E941B0C51
:1018B000089590937502809374020895FC01248129
:1018C0002223C1F0808191810E94A50B92959F7087
:1018D000963091F058F4925F9F70923058F4803FA8
:1018E00019F030F4883E30F481E008959A5FF4CF27
:1018F000843FD1F380E00895883EB0F3813FD1F773
:10190000F3CFA6E0B0E0E7E8FCE00C94352A498389
:101910005A8349815A819923A1F0222391F0CA0167
:101920000E94710B182F682F89819A810E94E50B04
:1019300069817A81812F0E94230A2696E3E00C9424
:10194000512ACA010E94B20B182FF2CFCF93DF9316
:10195000FC01EB016A3071054CF0CB016AE070E0EC
:101960000E94692ACF010E94A60CFC01CE016AE008
:1019700070E00E94692ADC01A55ABE4F8C918083D9
:101980001182CF010196DF91CF910895CF93DF931C
:10199000C091DB05D091DC058A30C1F42091D203DF
:1019A000CE01855D9340622F70E00E94122A281BB1
:1019B000822F66E00E945D2AC82FC15018F4DF9183
:1019C000CF91089580E20E94C60CF7CF8D30E9F4E4
:1019D000C55DD3402091D203622F70E0CE010E94FA
:1019E000122A281B822F9E01280F311D21153240FB
:1019F00018F080E0D0E0C0E0C80FD11DCB52DC4F22
:101A0000D093DC05C093DB05DACF96E0FE01A5EDAF
:101A1000B5E001900D929A95E1F7803E08F458C028
:101A200086E0FE0111928A95E9F7C091DB05D0911D
:101A3000DC0546E050E0BE0185ED95E00E94CF2A2E
:101A40009E01255D3340892B41F1C90145E0969502
:101A500087954A95E1F741E050E0BA0102C0660F70
:101A6000771F8A95E2F7CB016091D3037091D4037D
:101A7000862B972BB9016B5F7F4FE5E076956795D5
:101A8000EA95E1F702C0440F551F6A95E2F7842BEF
:101A9000952B9093D4038093D3032A5F3F4F4091BB
:101AA000D203642F70E0C9010E94122A481B4630FD
:101AB00010F4240F311D211572E0370710F030E0CB
:101AC00020E02B523C4F3093DC052093DB0577CF91
:101AD000F6E08F9FB001112460587B4F46E050E044
:101AE000CE010E94B92AA1CFCF93DF93EC01FE0172
:101AF0008491811103C0DF91CF9108950E94C60C9B
:101B00002196F5CF2091260280911D02282B8091ED
:101B10001C02882381F0282B30E080EF91E0FC014B
:101B20004191CF0141113F5FF1E0863F9F07B9F737
:101B3000311110921C022093EE0148E050E06EE15A
:101B400072E08EEE91E00E94CF2A892BA9F088E006
:101B5000EEEEF1E0AEE1B2E001900D928A95E1F790
:101B6000E0917503F0917603309731F00280F381B4
:101B7000E02D8EEE91E00995089510922602E0EF97
:101B8000F1E086E0DF011D928A95E9F790E080E0C0
:101B90000E94D50690E080E00E94B00610921D02DF
:101BA0000E94820D0895AAE2B0E0E9EDFDE00C94F8
:101BB000352A8DE893E02091F100FC012193CF01BB
:101BC000F3E085399F07B9F780918E03833009F4DC
:101BD00070C0B8F4813009F447C0823009F4B1C054
:101BE0008091E80083FF7EC280918D0390918E03E7
:101BF0009A3008F077C2E92FF0E0E15CF44D0C94E4
:101C00007D2A8A3009F48CC08B3009F46FC089308A
:101C100039F780918D03813219F78091910390916A
:101C200092030297E8F68091E800877F8093E800AE
:101C30008091E80082FF38C09091F3008091F2001B
:101C4000029731F48091F100813011F0863021F457
:101C50008091F100809380038091E8008B778093DE
:101C6000E8000E946E05BCCF80918D03813A09F097
:101C7000B7CF8091E800877F8093E800809191033F
:101C800090919203892B61F468E081E893E070E021
:101C90000E941A068091E8008B778093E800A0CF1D
:101CA00060E090E080E0F3CF80918B038111C0CFA2
:101CB00097CF80918D03813A09F092CF8091910363
:101CC00090919203892B09F08BCF8091E800877F58
:101CD0008093E8008091E80080FFFCCF80915A015A
:101CE0008093F1008091E8008E77B9CF80918D03C9
:101CF000813209F075CF8091910390919203892BE5
:101D000009F06ECF8091E800877F8093E8000E9401
:101D10006E0580918F0380935A010E94BD0D60CFA4
:101D200080918D03813209F05BCF8091E800877F3D
:101D30008093E8000E946E058091900380937F035A
:101D40004FCF80918D03813A09F04ACF8091E8000E
:101D5000877F8093E8008091E80080FFFCCF80912E
:101D60007F03BECF803899F0823809F0BBC18091E3
:101D700091038F70873008F0B5C18093E90080919E
:101D8000EB0085FB882780F91092E90006C080915E
:101D9000890390918A03911182609091E800977F66
:101DA0009093E8008093F1001092F1008091E80098
:101DB0008E7794C1882309F482C1823009F092C1E0
:101DC00080918F03811185C1809191038F702FEFD6
:101DD000280F263008F086C18093E9002091EB009F
:101DE00020FF77C1933031F48091EB0080628093C3
:101DF000EB006FC19091EB0090619093EB0021E0BC
:101E000030E001C0220F8A95EAF72093EA00109291
:101E1000EA008091EB008860EACF811163C11091E4
:101E20008F031F778091E3008078812B8093E300FC
:101E30008091E800877F8093E8000E946E05809182
:101E4000E80080FFFCCF8091E30080688093E3008E
:101E500082E0111183E080938B0344C1805882306B
:101E600008F040C180918F03909190038C3D23E056
:101E70009207A1F583E08A838AE289834FB7F894B9
:101E8000DE01139620E03EE051E2E32FF0E05093B4
:101E90005700E49120FF03C0E295EF703F5FEF70C1
:101EA0008E2F90E0EA30C0F0C7968D939D932F5F00
:101EB000243159F74FBF8091E800877F8093E80075
:101EC0006AE270E0CE0101960E941A068091E80055
:101ED0008B778093E80006C1C096E7CF40919103CD
:101EE00050919203292F33272330310509F444C040
:101EF00078F52130310509F46FC08BE390E0E5EF10
:101F0000F3E02230310509F0EDC02091E800277F91
:101F10002093E80020919303309194038217930754
:101F200008F49C0140E02115310509F064C041111D
:101F300062C08091E80082FDC9CF80918B03882325
:101F400029F2853019F28091E80083FFF2CFBECFED
:101F500021323105A9F12232310509F0C3C0411502
:101F6000510509F443C04130510509F0BBC082E37B
:101F700090E0EFE7F3E0C9CF992781309105C1F0F8
:101F8000009759F0029709F0ADC0E2E4F4E0E49163
:101F90008E2F90E0E2E4F4E007C0ECE7F4E0E49197
:101FA0008E2F90E0ECE7F4E0009709F49BC0ADCFF2
:101FB000E6E6F4E0E4918E2F90E0E6E6F4E0F4CF7C
:101FC0004115510571F04130510509F08BC089E090
:101FD00090E0E0E2F4E099CF82E190E0E0E3F4E029
:101FE00094CF89E090E0E7E0F4E08FCF84E490E0E4
:101FF000E1EBF3E08ACF80918B03882309F466CF6D
:10200000853009F463CF8091E80083FD5FCF809134
:10201000E80082FD8ECF8091E80080FF84CF909110
:10202000F3008091F2002115310519F088309105F7
:1020300050F041E0089709F040E08091E8008E7789
:102040008093E80070CF44914093F1003196215085
:1020500031090196E8CF803809F044C08091E8004A
:10206000877F8093E80080918C038093F1009ECE5F
:10207000811138C010918F031230A0F58091E800D3
:10208000877F8093E80010938C030E946E051123D4
:1020900011F084E005C08091E30087FDFACF81E074
:1020A00080938B0342E061EC81E00E948D0542E267
:1020B00061EC82E00E948D0580918B0313C08091BA
:1020C0008F03813079F481E0933009F080E08093D0
:1020D0008A031092E9008091E800877F8093E800EE
:1020E0000E946E058091E80083FF0AC08091E8009D
:1020F000877F8093E8008091EB0080628093EB0003
:10210000AA96E3E00C94512A882321F00E94600BE8
:102110000E94820D0895882339F090912602982B11
:10212000909326020E94820D0895882309F44DC0E1
:10213000823879F40E94FA0681FF47C089E30E9441
:1021400097060E94820D89E30E948A060E94820DF2
:102150000895833859F40E94FA0680FF36C083E55B
:102160000E9497060E94820D83E5EECF843859F4D1
:102170000E94FA0682FF29C087E40E9497060E9407
:10218000820D87E4E1CF9CEF980F913AE8F290E25C
:10219000980F983050F4877091E001C0990F8A959C
:1021A000EAF7892F0E94600BD1CF9BE5980F9330FF
:1021B00028F490E080E00E94D5060895885A8B317B
:1021C00020F490E080E00E94B00608950F931F93E2
:1021D000CF93DF938B01EA0190918B03943061F5EB
:1021E0008093E9008FEF9091E800815095FD06C043
:1021F00095ED9A95F1F700008111F5CF8091E800F7
:1022000085FF1AC00E943D05811111C08091E80030
:1022100085FD06C08091E8008E778093E800F2CFBC
:10222000F80181918F018093F100219779F78091D6
:10223000E8008E778093E800DF91CF911F910F9196
:10224000089543E050E0BC0182E00E94E61008954A
:10225000CF93DF93EC0148E050E0BC0181E00E94A5
:10226000E61088E0FE01A1E8B3E001900D928A95A6
:10227000E1F7DF91CF910895539A4BB1477F5BB15E
:102280005860EFB7F8949B01220F331F260F371FBA
:10229000280F391F2817390741F4EFBF8FE594E065
:1022A0000197F1F700C000000895DC016D91CD01A8
:1022B00078E05BB9000000C067FF4BB9660F000013
:1022C00000C000C000C04BB900C07A9591F7E2CFC2
:1022D000B0E0A0E0EEE6F1E10C942E2A7C015B0177
:1022E0006A018091650201E010E08A3010F40AE092
:1022F00010E0C1E0D0E0B501C701F60109958111F8
:1023000004C021960C171D072CF4CDB7DEB7EAE008
:102310000C944A2ACC9F9001CD9F300D300D112492
:1023200090E080E045E34A95F1F7000001968217BE
:102330009307C1F7E0CFCF93C82F8823C9F0823825
:10234000C9F40E94FA0681FD13C089E30E94970632
:102350000E94820D2FEF87EE93E021508040904045
:10236000E1F700C0000089E30E948A060E94820D06
:10237000CF9108958338A1F40E94FA0680FDF8CF2A
:1023800083E50E9497060E94820D2FEF81EE94E074
:10239000215080409040E1F700C0000083E5E4CF89
:1023A0008438A1F40E94FA0682FDE2CF87E40E94FD
:1023B00097060E94820D2FEF81EE94E0215080401D
:1023C0009040E1F700C0000087E4CECF8CEF8C0F87
:1023D000813A70F4E0EFF1E086EF91E02191C217CD
:1023E00099F18E179F07D1F78C2F0E949706BECFC9
:1023F00080E28C0F883068F4C77021E030E001C0C3
:10240000220FCA95EAF780912602822B809326023A
:10241000ADCFEBE5EC0FE33040F4F0E0E159FE4FD7
:10242000808190E00E94D506A3CFC85ACB3108F036
:102430009FCFEC2FF0E0EE0FFF1FEE58FE4F808194
:1024400091810E94B00694CF8C2F0E948A060E9430
:10245000820DCACF0E94BD0D2FEF84E39CE0215076
:1024600080409040E1F700C0000088E19AE00FB69C
:10247000F894A895809360000FBE90936000FFCF02
:1024800080E090916C0320916B03291749F1E92FAB
:10249000F0E0E359FC4F20819F5F937090936C03B1
:1024A00080916A038F5F80936A0327FD0BC08AEADD
:1024B0000E949B118FE39CE90197F1F700C0000097
:1024C0008AEA0AC089EA0E949B118FE39CE901977E
:1024D000F1F700C0000089EA0E94951081E0D1CF99
:1024E0000895AB0124E630E0BC0188E70E94C627CE
:1024F00021E0892B09F020E0822F08958091650367
:1025000090916803911103C091E089270895882371
:1025100069F062E070E08DE293E00E947112811137
:1025200003C080916503089510926503809165034F
:10253000EBCFCF93C0916503809168038823D1F0DE
:102540000E947E06605A75418F4F9F4F60936103D2
:10255000709362038093630390936403C11108C076
:1025600062E070E08BE293E00E947112811105C07D
:10257000C09165038C2FCF91089581E0809365030E
:10258000F7CFB0E0A0E0E7ECF2E10C942C2A49018F
:102590005A016B017C010E94B0078401A4016A2DDD
:1025A0007B2D88E090E00E941B2B94014A2D5B2D2F
:1025B000B601C70100E20E949E2A622F84E290E0E9
:1025C0000E94092BCDB7DEB7ECE00C94482AA3E0BB
:1025D000B0E0EDEEF2E10C942F2A082FE62EF42E57
:1025E000C22E8091330380FF45C020913403201315
:1025F00008C090913503961304C090913603941748
:1026000029F090919B02926090939B02E82FE695AF
:10261000E695AE2FB0E0A353BE4F9C9190939902E4
:102620008C7F843059F54F2D68E76F1508F448E723
:102630009E012F5F3F4F6E2D802F0E94C6074B815A
:1026400069818A810E94970700933403E0923503E1
:10265000F0923603CC2071F0209133036091370360
:1026600070913803302FA7018091390390913A037C
:102670000E94C1122396E9E00C944B2A9230C1F1DA
:102680009530B1F19B3001F7EB507E2F7170B72E72
:10269000E695F0E0EA5DFC4F1491D12C6091520177
:1026A000D61618F00E947307CFCFD19EC001112417
:1026B00070E00E94122A802FB11018C0860F20915E
:1026C0005001622F6D0D7727771F9B01220F331F5B
:1026D000260F371F24563D4F4F2D78E77F1508F4FE
:1026E00048E76E2D0E94C607D394D8CF861BE7CF4C
:1026F000022FAACFE3E3F3E0438121E1421B08F478
:1027000040E021E0628181810E94E7120895E3E3C5
:10271000F3E0438121E1420F08F44FEF21E06281B1
:1027200081810E94E7120895E3E3F3E0628121E1F1
:10273000621B08F460E021E0438181810E94E7127E
:102740000895E3E3F3E0628121E1620F08F46FEFA3
:1027500021E0438181810E94E7120895E3E3F3E0E1
:10276000818121E04381628188500E94E7120895AF
:10277000E3E3F3E0818121E043816281885F0E948D
:10278000E712089580913703882319F081508093D0
:102790003703209133033091340340913503509136
:1027A000360360913703709138038091390390911B
:1027B0003A030E94C112089580913703833018F4C0
:1027C0008F5F80933703209133033091340340911E
:1027D000350350913603609137037091380380912F
:1027E000390390913A030E94C112089590913C03DD
:1027F00092FB222720F9281779F080FB92F9909319
:102800003C0360913B0370913C0384E090E00E94A4
:10281000272B82E00E94320C0895ABE0B0E0E3E1A8
:10282000F4E10C94362A88E0E3E3F3E0DE0111964C
:1028300001900D928A95E1F78091990290919A0208
:10284000A0919B0289879A87AB872B854091610273
:102850005091620260916302709164023FB7F894F4
:1028600080917A0390917B03A0917C03B0917D03CA
:102870003FBF841B950BA60BB70B84369105A105B2
:10288000B10510F4222319F18091310190913201A8
:102890008C5B9D4F4091300150E04C30510510F061
:1028A0004BE050E0BE016F5F7F4F0E94DC2A86E064
:1028B00090E00E949C29882369F00E947E06609324
:1028C000610270936202809363029093640210929B
:1028D0009B0281E02B96E2E00C94522AA4E0B0E047
:1028E000E4E7F4E10C94352A409140025091410212
:1028F00060914202709143022FB7F89480917A035D
:1029000090917B03A0917C03B0917D032FBF841B2A
:10291000950BA60BB70B11E084369105A105B10507
:1029200070F10E9418096E5F7F4F8F4F9F4F698330
:102930007A838B839C838091290190912A018C5BFF
:102940009D4F4091280150E04530510510F044E082
:1029500050E0BE016F5F7F4F0E94DC2A85E090E06F
:102960000E949C29182F882351F00E947E066093B4
:102970004002709341028093420290934302812F60
:102980002496E3E00C94512A4F925F927F928F92AB
:102990009F92AF92BF92CF92DF92EF92FF920F93EE
:1029A0001F93CF93DF930F92CDB7DEB7C62E4A01A8
:1029B0005901482E880F5508C2010E949C29782E83
:1029C000882309F480C0C20133E0880F991F3A952B
:1029D000E1F7FC01E050FF4F438150E04115510504
:1029E00011F041E050E080509F4FFC0164817581FF
:1029F0006C5B7D4FCE0101960E94DC2AF401408180
:102A00005181628173812FB7F89480917A039091FC
:102A10007B03A0917C03B0917D032FBF841B950B9A
:102A2000A60BB70B84369105A105B10540F4B7019B
:102A3000C8010E940B079981891709F444C00C2C26
:102A4000000CDD08C6010E949C29782E811113C05C
:102A5000712C872D0F90DF91CF911F910F91FF90D7
:102A6000EF90DF90CF90BF90AF909F908F907F902E
:102A70005F904F900895C60123E0880F991F2A9513
:102A8000E1F7FC01E050FF4F438150E0E416F5060A
:102A900008F4A70180509F4FFC01648175816C5B35
:102AA0007D4FC5010E94DC2AB701C8010E940B07B7
:102AB00099818913CDCF0E947E06F40160837183D2
:102AC00082839383C6CFA701B801C5010E94DC2A87
:102AD000C0CFA8E0B0E0EFE6F5E10C94322A88E040
:102AE000E82EF12C0AE412E09E012F5F3F4F4CE3E9
:102AF00052E063E082E00E94C414082F882389F129
:102B00009091490280913B02981759F110E0909101
:102B10004D0280914C028917F1F0E92FF0E0E85B5B
:102B2000FD4F868187FB662760F99F5F93709093C6
:102B30004D0290914B029F5F90934B028F770E94C2
:102B40004107182F8111E3CF84E090E00E949C2977
:102B5000012F082302C01111F7CF80914902809301
:102B60003B02802F2896E6E00C944E2AA4E0B0E0C9
:102B7000ECEBF5E10C94302A6B0184E0E82EF12CAB
:102B800005E412E09E012F5F3F4F47E352E061E012
:102B900080E00E94C414882361F049815A816B81CE
:102BA0007C814093330250933402609335027093DA
:102BB0003602409133025091340260913502709197
:102BC0003602F60140835183628373832496E8E0E2
:102BD0000C944C2A1F920F920FB60F9211242F9330
:102BE0003F934F935F936F937F938F939F93AF9395
:102BF000BF93CF93DF93EF93FF93D091E900DF7002
:102C00008091EC00C82FC17080FDC0E81092E900EF
:102C10008091F000877F8093F00078940E94D30D1C
:102C20001092E9008091F00088608093F000CD2B35
:102C3000CF70C093E900FF91EF91DF91CF91BF91E9
:102C4000AF919F918F917F916F915F914F913F9144
:102C50002F910F900FBE0F901F9018951F920F92FB
:102C60000FB60F9211242F933F934F935F936F935F
:102C70007F938F939F93AF93BF93EF93FF93809135
:102C8000E10082FF09C08091E20082FF05C08091CF
:102C9000E1008B7F8093E1008091DA0080FF24C007
:102CA0008091D80080FF20C08091DA008E7F8093D1
:102CB000DA008091D90080FF9DC080E189BD82E16A
:102CC00089BD09B400FEFDCF81E080938B03809124
:102CD0007E03811109C00E941E050E94BF058091DC
:102CE000E20084608093E2008091E10080FF17C0E1
:102CF0008091E20080FF13C08091E2008E7F80937C
:102D0000E2008091E20080618093E2008091D8002F
:102D100080628093D80019BC85E080938B038091FA
:102D2000E10084FF2BC08091E20084FF27C080E196
:102D300089BD82E189BD89B5982F917080FFFBCF55
:102D40008091D8008F7D8093D8008091E1008F7EA4
:102D50008093E1008091E2008F7E8093E200809179
:102D6000E20081608093E20080918C03882309F463
:102D700047C084E080938B0380918B038091E100B6
:102D800083FF27C08091E20083FF23C08091E10090
:102D9000877F8093E10082E080938B0310928C0305
:102DA0008091E1008E7F8093E1008091E2008E7F30
:102DB0008093E2008091E20080618093E20042E033
:102DC00060E080E00E948D058091F0008860809333
:102DD000F000FF91EF91BF91AF919F918F917F9103
:102DE0006F915F914F913F912F910F900FBE0F9078
:102DF0001F90189519BC10928B0310927E0374CF0C
:102E00008091E30087FD93E090938B03B5CF789496
:102E10001F921FB61F9211248F939F93AF93BF935E
:102E200080917A0390917B03A0917C03B0917D0304
:102E30000196A11DB11D80937A0390937B03A0930B
:102E40007C03B0937D03BF91AF919F918F911F90B1
:102E50001FBE1F9018959C014FB7F89480917A037C
:102E600090917B03A0917C03B0917D034FBF821BA7
:102E7000930B08952FB7F89480917A0390917B0378
:102E8000A0917C03B0917D032FBF08950F931F93F2
:102E9000CF93DF93C62FD42F022FFC018581882387
:102EA000A9F06093D1030E943A179093D0038093C6
:102EB000CF03C77081E001C0880FCA95EAF70E946E
:102EC0008B10DF91CF911F910F9108958091D103C5
:102ED000681335C08091CF039091D0030E942B17C7
:102EE000883C910560F510E21D0FCD17B9F080E226
:102EF0008C0F883040F4C77081E001C0880FCA95FC
:102F0000EAF70E948410183048F481E09D2F9770F2
:102F100001C0880F9A95EAF70E948B10802F0E94BB
:102F20009B11802F0E949510183058F6D77081E0C1
:102F300001C0880FDA95EAF70E948410C2CFC770EB
:102F400081E001C0880FCA95EAF7F6CFA6E1B0E0AC
:102F5000ECEAF7E10C94272A80916803882309F4AE
:102F60008AC080916603909167030E942B17C297D5
:102F700008F462C00E943A17909367038093660337
:102F800085ED93E09093DC058093DB0580917103E0
:102F9000882309F490C080913B0382FD70C083E7D1
:102FA00093E00E94740D81E793E00E94740D86E720
:102FB00093E00E94740D80913D0390913E03292F70
:102FC00033272115310509F465C0C90128E0AC019A
:102FD00074E0569547957A95E1F74115510511F042
:102FE0002C5FCA01AC0156954795569547954115FA
:102FF000510511F02E5FCA0196958795892B09F02E
:103000002F5F622F70E0E6E6F1E0CE0101968C01C1
:103010003191311141C02A3008F442C0FC011082C4
:103020000E94A60CF80101900020E9F7CF0101975A
:103030007C010E151F05C8F18091D3039091D40334
:10304000892BF1F5809165038823A9F00E947E0603
:103050000091610310916203209163033091640336
:10306000601B710B820B930B6F3F7F4F8F4F9F47FE
:1030700010F40E947E126696E1E10C94432A89E7DF
:1030800093E00E94740D8FE693E00E94740D8CE72C
:1030900093E08FCF20E09BCFDC013D93CD01B8CFF3
:1030A00020E2DC012D93CD01BBCFD8018D918D01A4
:1030B0000E94C60CBECF8FE293E00E94740DBCCF7D
:1030C00080916803882309F4BDCF8091600381114A
:1030D000B9CF0E9499122091D3033091D4032115C6
:1030E000310509F4AFCF80E041E050E0082F10E057
:1030F0007A01082E02C0EE0CFF1C0A94E2F7B70119
:1031000062237323672B11F48F5FF0CF90915F03DD
:1031100090FF9CC0880F880F880F809355011092F4
:103120005801895F8093560183E08093590124E61A
:1031300030E047E050E063E571E088E70E948227D5
:10314000892B09F07FCFA80125E0440F551F2A9550
:10315000E1F780915F0380FF8BC0EFE3F3E080E253
:10316000DF011D928A95E9F7E7EEF1E0FE8BED8B2A
:1031700003EE11E08BEEA82E81E0B82E97E0392EF9
:1031800044244394AD89BE898D91BE8BAD8BF801EB
:1031900021918F01240F352F311D2B523C4FE82FE9
:1031A000F0E0E15CFC4F90E080E0632C681A742C46
:1031B000082E01C0770C0A94EAF76901812CD60128
:1031C0009D906D019720662D68196770562E062E0A
:1031D000000C770BB92D01C0BB0F5A94EAF771951B
:1031E000619571096770772701C096946A95EAF72F
:1031F0009B2A6081562E59285082839468E086125B
:10320000DECF019631968830910579F68D899E89B9
:10321000A816B90609F0B6CF04E610E020E230E0C7
:103220004FE353E060E488E70E940C28892B09F003
:1032300009CFE094F0948091D3039091D403E822D5
:10324000F922F092D403E092D303FCCE8295880F4A
:103250008076809355019801369527953695279568
:1032600020935801815E80935601209359015FCFCE
:103270004B525C4F04E610E020E230E0D3CF809167
:103280007103882319F00E943A1708950E941809C3
:10329000CB010895609133036695669570E04BE02D
:1032A00050E083E491E00E94C22A892B19F481E066
:1032B00080939A020E943F19909394028093930204
:1032C00080919B02846080939B02089590913303C8
:1032D00090FF3AC09370811138C09460909333038B
:1032E00080919B02816080939B02662391F02091E4
:1032F000330330913403409135035091360360918C
:103300003703709138038091390390913A030E94FA
:10331000C112609133036695669570E04BE050E012
:1033200083E491E00E94C22A892BB9F00E946C07C5
:1033300081E08093960220E040913603609135034E
:10334000809134030E94E7120895863110F094654D
:10335000C5CF880F880F982BC1CF0E944A19E8CF9C
:103360008091330386958695815009F485E161E06B
:103370000E946619089580913303869586958F5F24
:10338000863108F081E061E00E946619089590910D
:10339000330390FF09C096959695981728F09617D5
:1033A00018F40E94BB19089561E00E9466190895FF
:1033B000B0E0A0E0EEEDF9E10C942E2A8C01FC01C6
:1033C0008481882341F121E04081518162817381B0
:1033D00095810E94810CEC01FC01E851FC47E7302B
:1033E000F105A8F5E75BF44D0C947D2A26E241EE49
:1033F00061EEC8010E94461780911B02877059F048
:10340000F8018581882339F080913C0382FF03C055
:1034100082E00E94320CCDB7DEB7EAE00C944A2A73
:1034200027E245EE65EEE5CF26E241EE60EEE1CF24
:1034300027E245EE64EEDDCF26E241EE62EED9CF23
:1034400027E245EE66EED5CF28E241E0EBCFF8016A
:103450008581882309F4F2C31092D103CE019057DD
:10346000839708F0D7C384E090E00E94F32A9093FA
:103470003C0380933B03FE01E150F047E232F1054B
:1034800020F4E05BF44D0C947D2A80913B03816035
:1034900080933B0395C080913C03886080933C03FC
:1034A0008FC080913B038260F3CF80913B038460A7
:1034B000EFCF80913B038860EBCF80913C0381602C
:1034C000EDCF80913C038260E9CF80913B03806126
:1034D000DFCF80913B038062DBCF80913B03806430
:1034E000D7CF0E94BD0D80913B038068D1CF8091E2
:1034F0003B038C60CDCF80913C038360CFCF809124
:103500003B038E7FC5CF80913C03877FC7CF8091DF
:103510003B038D7FBDCF80913B038B7FB9CF8091E3
:103520003B03877FB5CF80913C038E7FB7CF8091DF
:103530003C038D7FB3CF80913B038F7EA9CF8091D9
:103540003B038F7DA5CF80913B038F7BA1CF0E9452
:10355000BD0D80913B038F779BCF80913B03837F91
:1035600097CF80913C038C7F99CF80913B0382FB66
:10357000992790F921E0922790FB82F990FB83F93B
:1035800087CF80913C03982F909591708E7F892BE7
:1035900090FB81F983CF90913B03892F8F7B96FF1E
:1035A000806476CF0E94BD0D90913B03892F97FBDD
:1035B00087F980586DCF61E08EE090E00E94092B82
:1035C00060913B0370913C0384E090E00E94272BC4
:1035D0000E94BD0D11CF60E0EFCF90913B03892F8A
:1035E0008F7E94FF806154CF90913B03892F8E7F13
:1035F00090FF81604DCF90913C03892F877F93FF8F
:1036000088604CCF85E315C385E321C380913303E4
:1036100080FF1EC0282F2E7F209333033091340368
:103620004091350350913603609137037091380310
:103630008091390390913A030E94C1120E946C0755
:1036400080919B02816080939B020E947307D4CE7D
:1036500081608093330361E0869586950E946619A8
:10366000CBCE40EB59E16BEB79E10E946607C4CE0B
:103670004BEB59E160EB79E1F8CF4EEA53E168EBAF
:1036800073E1F3CF48EB53E16EEA73E1EECF44E927
:1036900053E161EA73E1E9CF41EA53E164E973E19F
:1036A000E4CF4AE753E167E873E1DFCF47E853E14E
:1036B0006AE773E1DACF42EC53E16CED73E1D5CF09
:1036C0004CED53E162EC73E1D0CF61E081E0C6CF15
:1036D00064E082E00E94C7198FCE6AE085E0FACFED
:1036E00064E18BE0F7CF61E085E1B8CF0E94BD0DCA
:1036F000FFEF24E33CE0F15020403040E1F700C010
:10370000000087E797E7909301088093000888E11D
:103710009AE00FB6F894A895809360000FBE90933E
:103720006000FFCF6FEF7FEF90E080E00E94272BDB
:103730000E942A1280913C0382FB882780F991E045
:1037400089270E94F613F8018581C081D1818823E1
:1037500009F44DC0CE010E94710BF82E682FCE01E6
:103760000E94E50BBE018F2D0E94230A0E94420A8F
:10377000D82FC92FA82EF801C580B680B2943FE09B
:10378000B32280911B02877009F1EC2CCC20F9F058
:10379000892F807F803469F080E28D0F8830B0F00F
:1037A000892F807E803229F4F1E0FD1778F4BB2068
:1037B00069F080913C0382FF09C082E00E94320CD4
:1037C00080911B028770EE24E3948111E12CDC2EA2
:1037D000D2942FE0D2222BE02D1508F46DC0ED2DF0
:1037E000F0E0EE58F44D0C947D2A80E0AACFCE0193
:1037F0000E94B20BF82EB6CF3C2F3F70F32EC07F45
:1038000019F0F29490EFF922CC20B9F0FF2069F082
:1038100080E28D0F883010F0A11009C0809126023F
:10382000F82AF09226020E94820D8D2F43C08091CB
:103830001D02F82AF0921D02F6CF8D2F0E949510DE
:10384000FF20D1F1D05ED83010F0A11004C08F2D30
:103850000E94600B06C0F09480911D02F822F09245
:103860001D020E94820D28C08C2F8F70F82EC07F01
:10387000C03219F0F29480EFF822AA2059F091E0BA
:10388000A91609F479C0CC2009F485C0BB2009F43D
:1038900047C0CBCF80913C0382FD3EC0CC20B1F12C
:1038A000FF2039F080912602F82AF09226020E9429
:1038B000820D80E00E949B112D2D2850330B243067
:1038C000310510F40E94FA06EE20A9F080911B0247
:1038D00080FD11C0F80115828695869586950E9417
:1038E000490CC8010E94D81980911B0286958695C3
:1038F00086950E94200C20E0F80140815181628170
:103900007381848195810E94810C85CD80E00E9425
:103910009510FF2089F29BCFCC20A1F0B11004C0FC
:103920008F2D0E948B10C8CFE1E0BE12C5CF8091D1
:103930001C029F2D9823F91609F4BECFF82AF092A5
:103940001C02BACFB110B8CF8F2D0E948410909175
:103950001C028F2D892329F08F2D80958923809338
:103960001C028091F7019F2D982309F4A5CFF094B4
:10397000F822F092F701A0CFCC2029F0F5E0FB155A
:1039800008F49ACFCDCF24E02B1508F495CF8F2DD6
:103990000E94841091CFBB20D1F339E3A31209C058
:1039A0008FEF97EEE3E081509040E040E1F700C0F8
:1039B00000008D2F0E9495107FCF8C2F86958695C5
:1039C000837069F0813009F077CF8D2F9C2F937031
:1039D000C11002C080E090E00E94B0066DCF8D2F34
:1039E0009C2F9370C11002C080E090E00E94D50629
:1039F00063CF8C2F837009F03FC0C1105DCF4D2F76
:103A0000429546954770440F440F2D2F2F7030E09C
:103A1000042E02C0220F331F0A94E2F790E080E0E8
:103A2000D4FF09C08FE090E002C0880F991F4A952B
:103A3000E2F780959095C695C695C370C23099F00F
:103A400078F44091740250917502C13039F0822BA4
:103A5000932B842395230E94590C2ECF242B352B96
:103A6000822B932BF8CF822B932B209174023091D1
:103A7000750282279327EFCF8695CC2011F08C2FEB
:103A80008170882309F418CF4D2F429546954770D1
:103A9000440F440F2D2F2F7030E0042E02C0220F50
:103AA000331F0A94E2F790E080E0D4FF09C08FE072
:103AB00090E002C0880F991F4A95E2F78095909593
:103AC000C695C695C370C23099F078F440913D0315
:103AD00050913E03C13039F0822B932B84239523E0
:103AE0000E941B0CE9CE242B352B822B932BF8CF75
:103AF000822B932B20913D0330913E038227932705
:103B0000EFCFCF70CC2029F08C2F0E94490C8D2F45
:103B100008CF8D2F0E9484108C2F0E94200CCCCEB9
:103B20008D2FF2EFAF1699F1FA1570F020EFA21673
:103B3000D1F031EFA31691F0CC2009F45BC0B110A5
:103B400074CE8C2F8F7127C093EFA91639F1E4EF53
:103B5000AE12F2CF80913C0382FD2EC08C2F8F716C
:103B6000CC20D9F218C0CC2069F0F4E0FB1508F4A1
:103B7000A3CECF7181E090E002C0880F991FCA9553
:103B8000E2F7B8CF25E02B1508F496CEF2CF8C2FB4
:103B90008F71C110C2CF0E94490C8ECE90E080E0A0
:103BA000CC2009F49DCFCF7181E090E002C0880F56
:103BB000991FCA95E2F794CFCC2089F0CF718C2F52
:103BC0000E94490C80913C0382FF07C038E0C39FEC
:103BD000C0011124836080931B028C2FDCCF81E015
:103BE0000E94320C81E08B1508F066CE82E00E94C4
:103BF000320C62CEBB2059F0893309F0DACE9FEF48
:103C0000E7EEF3E09150E040F040E1F7D0CE8C2FAA
:103C10008F7183CFC631FCE7DF07E1F48091260284
:103C20008A7A91E009F490E09093F6018111EACC50
:103C300089E20E9497060E94820DDECBC6312CE7F6
:103C4000D20741F58091F6018111DECC89E20E9414
:103C50008A06F1CFC3303CE7D30709F463CD50F4B3
:103C6000C1159CE7D90709F441CDC130DC4709F4FF
:103C70005FCD69CDCB35FCE7DF0709F4B6CDCC3598
:103C80002CE7D20709F456CDCA35DC4709F05BCDE5
:103C900081E057CD809126028272FE01E052F84702
:103CA000E531F10508F04FCDE258F44D0C947D2A32
:103CB000CF93DF9380911A02807F09F04DC08091ED
:103CC0001902882309F448C0E091CE03509195036E
:103CD000C0911502D09114026091160270911702E2
:103CE00047E05E17C9F18E2F90E0E49FF0011124A8
:103CF000EA56FC4F2481222391F1489FF001499F0D
:103D0000F00D1124DF01AA56BC4F11962C9111978A
:103D10002C1325C02C912D1322C015962C9115978C
:103D200021111DC012962D913C91261B370B283C6A
:103D30003105A8F480911A028F70806180931A0275
:103D4000E456FC4F80818F708061808384E192E033
:103D50000E94D8190E94670BDF91CF910895FC0152
:103D60003196E770BECFA4E1B0E0E9EBFEE10C9440
:103D70002C2A8C0186E0F801DE011F9601900D923D
:103D80008A95E1F7F8018481E58094E1A92E92E01B
:103D9000B92E90911802911128C0882319F1EE20B4
:103DA000F1F0C8010E945E0CF82E8823C1F087E074
:103DB000F801D50101900D928A95E1F780911802E2
:103DC000813031F480911402909115020E94A50B6C
:103DD0000E94581E8F2D6496ECE00C94482AC8016E
:103DE0000E94D819FF24F394F5CFD080C18082803F
:103DF0009380F09019022091160230911702A401CD
:103E0000421B530BFF2009F4D9C0483C510508F070
:103E100092C08823F9F29091150280911A02282FFE
:103E2000207F09F056C0C91214C090911402D91213
:103E300010C0E11048C08F70806180931A0284E145
:103E400092E00E94D81980911A02F8018683F12C21
:103E5000C1CFE11038C06C2D8D2D0E94FF046C2D58
:103E60008D2D0E94FF04E82E8111F1CFDF86C88AD4
:103E70008F8598890E94A50B292F22952F702430B9
:103E800058F49F70223088F0992399F0F8019681B8
:103E9000907F79F4FE2C9ECF2A5F2F70223068F03D
:103EA000C8010E94D819EF2CF5CF992311F088236F
:103EB00089F3805E883070F3F3CF803F58F3815FE1
:103EC000833070F7E7CF80911A02816080931A02E5
:103ED000BECFC91207C090911402D91203C0EE20C0
:103EE00009F48DC0C8010E945E0C882309F477CFC5
:103EF000EE2009F474CF80911A02803288F020916C
:103F0000140230911502398728879B868A86909102
:103F100018029C871D868E87CE0108960E94D819AC
:103F200087E0F801A4E1B2E001900D928A95E1F7F3
:103F30000E94581E57CF90911A02292F207F51F4CA
:103F400084E192E00E94D81987E0F50111928A95E8
:103F5000E9F77DCF882309F43DCF809115028C11BC
:103F600010C080911402D8120CC0E1100AC09683D0
:103F7000C8010E94D81987E0F50111928A95E9F7E6
:103F800029CFC8010E945E0C882309F428CFEE20B7
:103F900009F425CF80911A02803210F22091140288
:103FA000309115023A8329839C828B82909118026A
:103FB0009D831E828F83CE010196B0CF483C510570
:103FC000D0F6882309F40ECFFE2CEE2009F407CF9B
:103FD000809115028C1120C080911402D8121CC04F
:103FE00080911A0280FD0FC0982F907F61F0868328
:103FF000903F31F0982F907F905F8F70892B868350
:10400000C8010E94D81987E0F801A4E1B2E001904C
:104010000D928A95E1F7DECEC8010E945E0C8111F7
:104020007FCF80911A02816080931A02C8010E949A
:10403000D819D0CEABE1B0E0E0E2F0E20C94342A43
:104040004E8B5F8B688F798F8A8F9B8F192F911181
:1040500010921D021D8A86E0FE017696DE011F96F3
:1040600001900D928A95E1F70A8D002341F021E03D
:104070004F85588969897A89C8010E94810C0B8B08
:104080001C8B87E0FE013F96DE01189601900D9291
:104090008A95E1F7CE0108960E94B31E81112AC0CD
:1040A00087E0FE013896DE01119601900D928A9507
:1040B000E1F78C858823F1F02091950330E0C90168
:1040C0000196877099274091CE0348171906E9F0A9
:1040D00097E0929FD001939FB00D1124AA56BC4F38
:1040E000FE01319601900D929A95E1F78093950328
:1040F0000E94670B17E08091CE039091950389137E
:1041000012C06B96E4E00C94502A0E94BD0D1092F0
:1041100095031092CE0387E0E4E1F2E0DF011D9207
:104120008A95E9F7E7CF819FC00111248A569C4FF9
:104130000E94B31E882329F38091CE0390E001965C
:10414000877099278093CE03D6CFA3E1B0E0EBEA46
:10415000F0E20C942B2A8E01045F1F4F88E0D801F7
:104160001D928A95E9F78AEAC82E81E0D82EF12CB3
:10417000E12CAA24A394B12C25EB822E21E0922ECF
:10418000F60181916F018F3F09F442C0F894E82F46
:10419000E295EF70F0E021A18F70A50102C0440FFD
:1041A000551F8A95E2F7CA01922F982B91A392A1ED
:1041B0008095892382A3789400C0EEEAF1E0712C07
:1041C00031E021912F3F09F4A3C0A22FA295AF7037
:1041D000B0E090968C9190E02F7002C095958795F5
:1041E0002A95E2F780FD94C0832F782A330F8E162C
:1041F0009F0639F7F601319780818F3F11F00E94B9
:10420000010950EA5A95F1F7F801EE0DFF1D708291
:104210008FEFE81AF80AA4E0EA16F10409F0B0CF2B
:1042200048E050E0B8018AE692E00E94CF2A009769
:1042300041F028E0F801AAE6B2E001900D922A953B
:10424000E1F70091730210E009581D4F892B09F422
:1042500061C081E080932B020E943A1790932A025A
:1042600080932902F12CE0907103EE2009F4ACC098
:1042700019821A821B821C82809165028A3008F0A2
:104280006DC046EB55E1BE016F5F7F4FC8010E94D4
:104290006811882309F487C049E655E1BE016F5FC4
:1042A0007F4FC8010E946811882309F47CC04EE644
:1042B00054E1BE016F5F7F4FC8010E9468118823DF
:1042C00009F471C04DE054E1BE016F5F7F4FC8013A
:1042D0000E946811882309F466C0109265028091DB
:1042E000720290E044E050E0BE016F5F7F4F89585A
:1042F0009D4F0E94CF2A21E020933202892B09F0A2
:1043000044C0E12C8E2D8F296396EDE00C94472A52
:1043100080E06BCFF0902B02FF2009F4A3CF8091B7
:10432000290290912A020E942B17059708F49ACF30
:1043300044E050E06AE672E0C8010E94CF2A892B6F
:1043400059F084E0EAE6F2E0D80101900D928A95F6
:10435000E1F710922B0287CFF12CFBCF80912C023A
:1043600090912D020E942B17843F914008F089CF35
:1043700080913202882329F284E0FE013196DF0128
:104380001D928A95E9F710923202E0917202F0E0F4
:10439000E958FD4F89819A81AB81BC8180839183EB
:1043A000A283B383AFCF809165028F3F31F08F5FDF
:1043B000809365028A3008F492CF0E943A17909356
:1043C0002D0280932C02D4CF84E0F801A5E4B2E062
:1043D00001900D928A95E1F764E070E085E492E047
:1043E0000E940B078093440288E0E9E6F3E0AAE428
:1043F000B2E001900D928A95E1F768E070E08AE4FE
:1044000092E00E940B0780934902809052029090A4
:104410005302A0905402B090550280912E029091C8
:104420002F02A0913002B091310288169906AA0697
:10443000BB06B1F080922E0290922F02A092300221
:10444000B09231020E947E06861A970AA80AB90A1B
:104450008092660290926702A0926802B09269020E
:104460008BE0E6E5F2E0DE01119601900D928A956F
:10447000E1F72981822F86958695DA80CB80BC80F2
:104480000A851B8510926002112309F43BCF10FFAF
:104490000AC09091330320FF1AC0916090933303B8
:1044A00060E00E94661911FF06C020E04B2D6C2DC4
:1044B0008D2D0E94E71212FF04C00023A9F00E9474
:1044C0004A1913FF1FCF81E0809396021BCF9E7F76
:1044D000909333030E946C0780919B0281608093CC
:1044E0009B020E947307DFCF0E946C07EACFA6E011
:1044F000B0E0EDE7F2E20C94342A0E943A178C0106
:1045000080912702909128028017910781F01982EB
:104510001A820E943A17682F49815A81792F80E0C8
:1045200090E00E941A2010932802009327022696FA
:10453000E4E00C94502A1F921FB61F9211248F930F
:104540009F93AF93BF9380917903811113C08091A2
:104550007A0390917B03A0917C03B0917D034196F7
:10456000A11DB11D80937A0390937B03A0937C03DC
:10457000B0937D03BF91AF919F918F911F901FBE0C
:104580001F901895CDB7DEB729970FB6F894DEBF08
:104590000FBECDBF85B7806885BF85B7806885BFF2
:1045A00084B7877F84BF0FB6F894A8958091600088
:1045B000886180936000109260000FBE80E890E0F8
:1045C0000FB6F89480936100909361000FBE8BEF5B
:1045D00098E09093ED018093EC010E941E050E94EB
:1045E000BF058091E20084608093E200789480911E
:1045F0008B038823A1F01091E9001F709091EC00CB
:10460000892F817090FD80E8182B1092E90080912D
:10461000E80083FD0E94D30D1F701093E90082E033
:1046200084BD93E095BD9AEF97BD80936E00109284
:1046300066021092670210926802109269028091DD
:10464000D80080618093D8002AE12A95F1F700C054
:104650008091D900182F117080FD04C00E941E05A2
:1046600010928B031093710322982A9A579A5F989D
:1046700035E03A95F1F7000083B182FB882780F995
:1046800057985F9A40EA4A95F1F7809372038093B6
:104690003801882309F437C210924E0189E18093D2
:1046A0004F018091710381110E94B028E9E6F3E087
:1046B00088E0DF011D928A95E9F78091380191E049
:1046C000892780938D028091380190939002809188
:1046D000380160E080E00E942E0761E080E00E94E7
:1046E0002E07EFE8F1E03197F1F700C0000010E08D
:1046F00080919002181708F40AC2809138018091C5
:10470000380194E0811190E09093730284E0891B5A
:104710008093720284E90E94010986E60E940109E1
:1047200087E90E94010986EC0E9401090EEA11E066
:10473000E5EBEE2EE1E0FE2ED8018D918D018F3F4D
:1047400011F00E940109E016F106B1F788E0E7E7F1
:10475000F2E0DF01282F1D922A95E9F7EAE6F2E060
:10476000DF011D928A95E9F790E080E00E94F32A2C
:10477000863E9E4F09F466C066EE7EEF90E080E0D4
:104780000E94272B60E082E090E00E94092B81E0EC
:1047900090E0909375028093740261E083E090E072
:1047A0000E94092B60E074E184E090E00E94272BD6
:1047B00060E086E090E00E94092B60E087E090E0F6
:1047C0000E94092B40E050E0BA0188E090E00E948E
:1047D0001B2B60E084E290E00E94092B60E087E1FF
:1047E00090E00E94092B60E08CE090E00E94092B91
:1047F00060E08DE090E00E94092B19821A821B82F2
:104800001C821D821E821F82188648E050E068E1EB
:1048100070E0CE0101960E94F92A40E050E0BA0112
:1048200080E290E00E941B2B40E050E0BA018FE054
:1048300090E00E941B2B40E050E0BA0183E190E041
:104840000E941B2B82E090E00E94E52A80937F0269
:1048500084E090E00E94F32A90933C0380933B0312
:1048600083E090E00E94E52A90E00E94590C1092AB
:104870005F0380E88093D2030E944E276BE070E0D4
:1048800083E192E00E9471128823E9F180915F0335
:1048900065E070E081FD4DC18EE092E00E947112F2
:1048A000882389F16DE070E08CEF91E00E94711235
:1048B000882349F10E947E06605A75418F4F9F4FB1
:1048C0006093610370936203809363039093640326
:1048D000E5EDF3E080E092E0DF019C011D922150C4
:1048E0003040E1F7F093DC05E093DB058FEF9FEFBD
:1048F0009093D4038093D30381E0809368038093E3
:1049000065031092600380917602811184C088E073
:1049100090E00E94ED2A4B015C0184E290E00E944D
:10492000E52A282F30E040E050E060E070E080E0D1
:1049300090E000E20E94832A282939294A295B292C
:10494000209333033093340340933503509336035D
:1049500060933703709338038093390390933A033D
:1049600030919B02336030939B022C7F09F043C04F
:1049700025E020933303109234032FEF2093350367
:1049800028E7209336031092370325E030E04FEFFD
:1049900058E760E00E94C11288E090E00E94ED2A92
:1049A0006B017C0184E290E00E94E52A282F30E030
:1049B00040E050E060E070E080E090E00E94832AF8
:1049C000B22FA32FF42FE52F5B0197018601BC299D
:1049D000A12BFE29E32BB0933303A0933403F09370
:1049E0003503E093360360933703B0923803809326
:1049F000390390933A030E94B0070E946C0780919C
:104A0000330380FF05C060E0869586950E94661995
:104A100081E08093760280917103811102C00E942F
:104A2000B32889E391E0909376038093750368E15E
:104A3000C62ED12C7724739474E0A72EB12C8091CC
:104A40008B0300E112E1853009F4B1C00E94A5207A
:104A500000E812E047E7E42E42E0F42E55EB852E05
:104A600051E0952EB4019701F8019191D9018D91F2
:104A70009D01DB014D91BD018423B2E0E838FB07C5
:104A800009F49FC0981789F3E0917103E987512CCD
:104A9000D7016D907D01F40181914F016822D80109
:104AA0002D908D01261431F1412C3324339426248A
:104AB000822D8321B9F0B985BB23A1F049825A82A6
:104AC0000E943A179C838B837D8291E0832D8621FF
:104AD00009F490E09E8349815A816B817C818D81AC
:104AE0000E941A204394330CE7E04E12E1CFF80104
:104AF000319760825394F8E05F12CACF0E94180980
:104B00006624639463C089E180934E01C8CD60E060
:104B1000812F0E942107082F61E0812F0E94210729
:104B2000E12FF0E0E257FD4F880F802B80831F5F5D
:104B3000DFCD89E092E0B2CE80918B03843021F109
:104B40000E947E121092790330E40FB6F894A89573
:104B5000C09260000FBE3093600083B7817F846095
:104B600083BF83B7816083BF7894889583B78E7F36
:104B700083BF0FB6F894A8958091600088618093F8
:104B80006000109260000FBE80918A03882379F044
:104B90000E94A520E7E7F2E0A5EBB1E081919D91AD
:104BA000892309F013C142E0EF37F407B9F7809188
:104BB0008B03853009F4C0CF0E94BD0D0E94FA0618
:104BC00045CF981361CF0E947722612C80919A0281
:104BD000882309F464C080919902E0913303E6953B
:104BE000E695E81BE0939502823009F083C0F0E07F
:104BF000ED5DFD4FE4910E2F10E03CE5E32E38E033
:104C0000F32E80919602882361F0109296020E9402
:104C10003F199093940280939302109298021092FD
:104C200097020E943F19E0919302F09194029C0137
:104C30002E1B3F0B2F3F3F4790F520918A022223E6
:104C4000B1F010928A022091880230918902821B71
:104C5000930B8F3F9F4758F4205D3A483093890269
:104C60002093880280919B02886080939B028090B1
:104C70009702909098020E0F1F1F109394020093BA
:104C8000930283E992E0F701099580919702909150
:104C90009802892B21F4892811F070928A02E09001
:104CA0007103EE2019F00E944012E82E80919102CB
:104CB000882351F01092910280916B0380936C03D2
:104CC0008091690380936A03F12C80919002F81619
:104CD00088F180917103882319F00E944012E82A1C
:104CE000EE2009F463C00E9418090E94A6170E94D2
:104CF000991260C0853061F4E695F0E0E05EFD4F0A
:104D0000E4910E2F10E02BEBE22E28E0F22E79CF6B
:104D1000853149F4EEE1F2E00591149192E8E92E33
:104D200098E0F92E6ECF00ED17E088E7E82E86E0D8
:104D3000F82E67CF61E08F2D0E942107182F60E0C9
:104D40008F2D0E942107E12FEE0F8E2B0F2D10E0EB
:104D5000D801A257BD4FEC919E2F9370891721F176
:104D6000EE0FEE0FE82BEC9380918D028F0DEF701C
:104D7000F0E0E354FE4F05571D4F9080D8019C9101
:104D8000990E9C92B3E060E0B91524F0EDEF9E1609
:104D90001CF461E00E944107892D990C990BB50123
:104DA0000E94692AD8018C93F3948FCF0E94A61792
:104DB00061109DCF0E94FA0690919202891709F422
:104DC0003ECE809392020E947E0639CE09BD19BD67
:104DD00009B400FEFDCF8091D8008F7D8093D8006C
:104DE0008091E00082608093E0008091E00081FD8E
:104DF000FCCF0E94BD0DDBCEEF92FF920F931F936D
:104E0000CF93DF93182FEB011092BC0084EA8093BC
:104E1000BC000E943A177C018091BC0087FF27C02C
:104E20008091B900887F883029F08091B900887F0F
:104E3000803189F51093BB0084E88093BC000E9408
:104E40003A178C018091BC0087FF1EC02091B900E9
:104E5000287F90E080E0283191F081E090E02034DC
:104E600011F490E080E091958195910908C0C70107
:104E70000E942B17C817D90778F68EEF9FEFCDB792
:104E8000DEB7E6E00C944E2AC8010E942B17C81723
:104E9000D907C0F6F2CF8FEF9FEFF1CF1092B90094
:104EA0008CE08093B80008950F931F93CF93DF9306
:104EB000EB018093BB0084E88093BC000E943A170A
:104EC0008C018091BC0087FF11C02091B900287F20
:104ED00081E090E0283211F490E080E09195819596
:104EE0009109DF91CF911F910F910895CF3FDC077A
:104EF00041F3C8010E942B17C817D90710F78EEF8E
:104F00009FEFEFCFB0E0A0E0E8E8F7E20C942B2AA7
:104F1000782E5B016A0189010E943A174C01C1E0B9
:104F2000D0E00431110558F0C5E0D0E00F3F100784
:104F300031F0C80164E170E00E94122AEB01BE0169
:104F4000872D0E94FC267C0197FF09C00F3F1007A8
:104F5000B1F3C4010E942B170817190780F7E50168
:104F6000CA0CDB1CCC15DD0511F0F7FE09C084E985
:104F70008093BC00C701CDB7DEB7EDE00C94472AA3
:104F8000B80189910E9454277C01ECCFB0E0A0E0E9
:104F9000ECECF7E20C942B2A782E5B016A01890174
:104FA0000E943A174C01C1E0D0E00431110558F0DD
:104FB000C5E0D0E00F3F100731F0C80164E170E0B8
:104FC0000E94122AEB01BE01872D0E94FC267C0163
:104FD00097FF09C00F3F1007B1F3C4010E942B17C0
:104FE0000817190780F7E501CA0CDB1CCC15DD0595
:104FF00011F0F7FE09C084E98093BC00C701CDB76A
:10500000DEB7EDE00C94472AFE018491B8010E94BE
:1050100054277C012196EACFB0E0A0E0E2E1F8E27B
:105020000C942A2A682E762E5A0169010E943A179A
:105030004C01C1E0D0E00431110558F0C5E0D0E0EA
:105040000F3F100731F0C80164E170E00E94122A9E
:10505000EB01BE01862D0E94FC267C0197FF1DC03E
:105060000F3F1007B1F3C4010E942B17081719074F
:1050700080F784E98093BC00C701CDB7DEB7EEE0CE
:105080000C94462AB80189910E9454277C01CC16C1
:10509000DD0679F3F7FEF6CFECCFB801872D0E943D
:1050A00054277C01E501CA0CDB1CF1CF8EE14A9B41
:1050B00002C08150E1F74A9BFECF08955A9880E2E2
:1050C0008A95F1F75A9A0895FC013BE03A95F1F779
:1050D00098E020E080E031E040E14A95F1F7880F68
:1050E0004A9B02C08160232742E04A95F1F7000005
:1050F00040E14A95F1F7915079F790E19A95F1F7EF
:1051000099B132E03A95F1F7000040E14A95F1F7A4
:1051100092FB992790F992272081920F908308950E
:10512000A1E0B0E0E6E9F8E20C94322A19828C01A1
:105130007C01E60EF11C0E151F0541F481E09981FA
:10514000911180E02196E6E00C944E2A0E945628A8
:10515000CE0101960E946428F80181938F01EBCF64
:10516000529A5A9A089552985A9AEA9AE9E6F0E0C1
:1051700080818F7C808308956150770B91E001C01E
:10518000990F6A95EAF720E031E0911108C02223D7
:1051900091F05A9A80E28A95F1F75A980895492F2A
:1051A000482339F05A9A232740E24A95F1F7969519
:1051B000ECCF5A98F9CF5A98EDCFFF920F931F93E7
:1051C000CF93DF93EC018C01060F111DC017D1079F
:1051D00029F4CDB7DEB7E5E00C944F2AF9900E9490
:1051E0005E2868E08F2D0E94BC28F0CF1F920F929E
:1051F0000FB60F9211240F931F932F933F934F934A
:105200005F936F937F938F939F93AF93BF93EF932E
:10521000FF93CF93DF930F92CDB7DEB719820E9431
:105220005628CE0101960E946428082F06950695FF
:105230000695282F22952570902F9570290F922F73
:10524000937026952695920F982797708981982BB1
:1052500009F05CC0083008F059C080E18A95F1F788
:105260005A9A529A82E08A95F1F700C05A9888E0DB
:10527000089F80011124D801A050BF4F1696ED91D0
:10528000FC9117973097A9F06091A8017091A9013E
:1052900014962D913C911597260F371F11968D91DD
:1052A0009C911297680F791F13964C9113978C91CC
:1052B0000995F801E050FF4F6381662351F020917A
:1052C000A8013091A90184819581820F931F0E94CA
:1052D000DD280E945E2880E18A95F1F75A9852985D
:1052E0005A9A80E18A95F1F7F801E050FF4F60810A
:1052F000662351F02091A8013091A901818192810A
:10530000820F931F0E9490280E9456280F90DF91D1
:10531000CF91FF91EF91BF91AF919F918F917F912D
:105320006F915F914F913F912F911F910F910F902E
:105330000FBE0F901F9018950F931F93CF93DF937D
:10534000EC0108970CF04CC0F894529A5A9885E0FA
:105350008A95F1F700009C2F969595708C2F85709B
:10536000980F892F83709695969523E0CC0FDD1FBB
:105370002A95E1F7980F8E01092B0E945E2800C044
:1053800068E0802F0E94BC2880E18A95F1F752984E
:105390005A9A4A9B1EC087E090E04A991CC0FE01C1
:1053A000E050FF4F63816623F9F02091A80130910E
:1053B000A90184819581820F931F0E9490288111F9
:1053C00013C0529A5A9A7894DF91CF911F910F91FE
:1053D000089500C0DECF019729F4529A5A9A789422
:1053E00080E0F2CF00C0D9CF0E94562880E28A9593
:1053F000F1F75A98529A80E18A95F1F7C050DF4F41
:105400006881662351F02091A8013091A90189811A
:105410009A81820F931F0E94DD280E945E28789453
:1054200081E0D2CFAA1BBB1B51E107C0AA1FBB1F43
:10543000A617B70710F0A61BB70B881F991F5A9520
:10544000A9F780959095BC01CD0108952F923F92C8
:105450004F925F926F927F928F929F92AF92BF9284
:10546000CF92DF92EF92FF920F931F93CF93DF9330
:10547000CDB7DEB7CA1BDB0B0FB6F894DEBF0FBE8D
:10548000CDBF09942A88398848885F846E847D84DA
:105490008C849B84AA84B984C884DF80EE80FD80DC
:1054A0000C811B81AA81B981CE0FD11D0FB6F89452
:1054B000DEBF0FBECDBFED010895991B79E004C09A
:1054C000991F961708F0961B881F7A95C9F7809543
:1054D000089597FB072E16F4009407D077FD09D0A6
:1054E0000E94122A07FC05D03EF4909581959F4FAB
:1054F0000895709561957F4F0895EE0FFF1F0590F9
:10550000F491E02D0994002E083090F0982F872F09
:10551000762F652F542F432F322F22270850F4CF98
:10552000220F331F441F551F661F771F881F991FA7
:105530000A95B2F7002D089597FD1094002E0830BB
:1055400098F00850232F342F452F562F672F782F90
:10555000892F912DF4CF1594979587957795679519
:1055600057954795379527950A95AAF71124002D49
:105570000895FB01DC0102C005900D92415050409E
:10558000D8F70895FC014150504030F001900616C4
:10559000D1F73197CF010895882799270895FB0106
:1055A000DC0104C08D910190801921F441505040DC
:1055B000C8F7881B990B0895FB01DC0102C001901C
:1055C0000D9241505040D8F70895F999FECF92BD01
:1055D00081BDF89A992780B50895A6E1B0E044E02E
:1055E00050E00C942F2BA8E1B0E042E050E00C9486
:1055F0002F2BDC01A40FB51F4150504048F0CB01C8
:10560000840F951F2E910E940A2B41505040D0F7D5
:105610000895262FF999FECF92BD81BDF89A019782
:1056200000B4021639F01FBA20BD0FB6F894FA9AEA
:10563000F99A0FBE08950396272F0E940A2B0E9405
:10564000092B252F0E940A2B242F0C940A2B01963C
:10565000272F0E940A2B0C94092BDC01CB01FC01A3
:10566000F999FECF06C0F2BDE1BDF89A319600B4BB
:105670000D9241505040B8F70895F894FFCFB20E04
:10568000DA0E7210DA0E72100D0F2E0F72102B1030
:105690003810141A181AF619101A1C1A201A241A7B
:1056A0007F1AF41A871A511A551A8B1A591A8F1A17
:1056B0009B1A651AED1A691A9F1A6D1AA31ACB1A4A
:1056C000711AA71AD21A771AAD1AB51A5D1A931A57
:1056D000611A971A7B1AB11AC11ADB1AEB1A4B1A04
:1056E000831AFB1AFC1BFC1B341C341CDD1C5C1CC9
:1056F0005C1C5C1CF91C811D901D901D061B311B40
:10570000381B3D1B421B471B4C1B511B561B5B1B75
:10571000601B651BFC19681B6D1BFC19FC19FC192F
:06572000701B731BFC1955
:10572600000000010000000000000004010000006D
:10573600000000010500000000000008060000004F
:10574600000000000000FD08040E0000000000003C
:105756000B12000000000000017B0628117A067972
:10576600062111010B0C0D0E0F101112131400322D
:105776000032320021007F220003013031323334FF
:10578600353637383900204C617965723A20008108
:105796008283E200E900EA00B500B600B700CD005A
:1057A6008301CC008A019201940121022302240282
:1057B6002502260227022A02B300B4006F007000F9
:1057C6009F01CB019F02A0024402946697C6F4F59E
:1057D600F6F73133323F3F3F7F3F3F3F7F00FF01C8
:1057E60000010000FFFF0000010001FF00000102B0
:1057F60002020505050505050B0B0B0B0B0B0B0B29
:0C5806000B0B150008101818100800000B
:00000001FF
