:100000000C942B050C9448050C9448050C94222B59
:100010000C9448050C9448050C9448050C9448052C
:100020000C9448050C9448050C9424120C943B162F
:100030000C94E3230C9448050C9448050C94480553
:100040000C9448050C9448050C9448050C944805FC
:100050000C9448050C94FD120C9448050C9448052A
:100060000C9448050C9448050C9448050C944805DC
:100070000C9448050C9448050C9448050C944805CC
:100080000C9448050C9448050C9448050C944805BC
:100090000C9448050C9448050C9448050C944805AC
:1000A0000C9448050C9448050C9448050000000089
:1000B00000000000000000000000290014001A00E9
:1000C00008001500170000002B00040016000700B0
:1000D00009000A000000E1001D001B0006001900D5
:1000E00005000000AE00E000E101E300E200215263
:1000F0002C000000000000000000000000000000D4
:100100002A00130012000C0018001C00000034002C
:1001100033000F000E000D000B0000001E7C3800A5
:10012000370036001000110000004F00520051004F
:100130005000E60022522C000000000000000000E9
:1001400000000000000001001E001F002000210030
:1001500022000000010067001E022E0256002D0240
:1001600000000100240231022502220221020000C7
:100170003900010001000100010001000100000040
:100180000000000000000000000000000100270047
:10019000260025002400230000004C0031002F0021
:1001A00026022F0235020000010001003000270264
:1001B00030023500000001000100010001000100D3
:1001C000010001000000000000000000000000002D
:1001D00000003A003B003C003D003E003F000000B4
:1001E00001004A004D004B004E00010000000100DC
:1001F0000100010001000100010000002078010061
:1002000001000100010001000100000000000000E9
:1002100000000000000000004500440043004200D0
:100220004100400000000100010001000100010048
:1002300001000000010001000100010001000100B7
:100240000000AE00A900AA00E6004600010001007F
:1002500000DA0281FFD9F1DB20A4A62EAF00A0C0F6
:10026000D30000A1C8D30000AED580A81F408D14D4
:100270002000643214783C1E0001010101010101DB
:10028000010102020202020202020203030303034B
:10029000030303040404040404040505050505061A
:1002A00006060606070707070708080808090909D8
:1002B000090A0A0A0B0B0B0C0C0C0D0D0D0E0E0E81
:1002C0000F0F0F1010111111121213131414151512
:1002D00016161717181819191A1A1B1B1C1D1D1E84
:1002E0001E1F2020212222232424252626272829D8
:1002F000292A2B2C2D2D2E2F303132323334353606
:100300003738393A3B3C3D3E3F4041424344454605
:100310004748494A4C4D4E4F5051535455565859E1
:100320005A5B5D5E5F616264656668696B6C6D6F88
:100330007072737577787A7B7D7E808283858788FB
:100340008A8C8E8F91939596989A9C9EA0A2A3A535
:10035000A7A9ABADAFB1B3B5B7BABCBEC0C2C4C636
:10036000C9CBCDCFD1D4D6D8DBDDDFE2E4E7E9EBF2
:10037000EEF0F3F5F8FAFDFF00AF00AE8081828366
:100380008485868788898A8B8C8D8E8F90919293B5
:1003900094A0A1A2A3A4A5A6A7A8A9AAABACADAE00
:1003A000AFB0B1B2B3B4C0C1C2C3C4C5C6C7C8C977
:1003B000CACBCCCDCECFD0D1D2D3D4000A000A0044
:1003C000959600B5B600979800B7B80005010902E8
:1003D000A10185020901A1000509190129081500DB
:1003E0002501950875018102050109300931158142
:1003F000257F95027508810609381581257F9501AD
:1004000075088106050C0A38021581257F9501754E
:10041000088106C0C005010980A101850319012AD0
:10042000B700150126B700950175108100C0050CB5
:100430000901A101850419012AA002150126A002C3
:10044000950175108100C005010906A10105071974
:10045000E029E715002501950875018102950175D0
:100460000881010507190029FF150026FF009506E0
:100470007508810005081901290515002501950554
:1004800075019102950175039101C009023B0002BB
:100490000100A0FA09040000010301010009211173
:1004A000010001224400070581030800010904013D
:1004B000000103000000092111010001227B000757
:1004C00005820320000112010002000000086532CD
:1004D00003000100010200012203480065006C00D6
:1004E000690078002000720065007600330020006B
:1004F000350072006F00770073000000140379006C
:1005000075007300680061006B006F0062006F008F
:100510000000040309040000000000003E5B4F5B84
:100520003E003E6B4F6B3E001C3E7C3E1C00183C68
:100530007E3C18001C577D571C001C5E7F5E1C0013
:1005400000183C180000FFE7C3E7FF00001824185C
:100550000000FFE7DBE7FF0030483A060E002629DF
:1005600079292600407F05050700407F05253F00CB
:100570005A3CE73C5A007F3E1C1C0800081C1C3EED
:100580007F0014227F2214005F5F005F5F00060976
:100590007F017F00006689956A006060606060008E
:1005A00094A2FFA2940008047E04080010207E207C
:1005B000100008082A1C0800081C2A0808001E1041
:1005C000101010000C1E0C1E0C0030383E3830008D
:1005D000060E3E0E060000000000000000005F0056
:1005E0000000000700070000147F147F1400242A75
:1005F0007F2A1200231308646200364956205000F7
:10060000000807030000001C224100000041221CDA
:1006100000002A1C7F1C2A0008083E0808000080F1
:100620007030000008080808080000006060000042
:100630002010080402003E5149453E0000427F4020
:1006400000007249494946002141494D33001814C0
:10065000127F10002745454539003C4A4949310081
:1006600041211109070036494949360046494929BF
:100670001E000000140000000040340000000008CC
:100680001422410014141414140000412214080010
:100690000201590906003E415D594E007C121112BB
:1006A0007C007F49494936003E41414122007F415B
:1006B00041413E007F49494941007F090909010044
:1006C0003E41415173007F0808087F0000417F418F
:1006D00000002040413F01007F08142241007F407C
:1006E000404040007F021C027F007F0408107F0012
:1006F0003E4141413E007F09090906003E4151212A
:100700005E007F0919294600264949493200030144
:100710007F0103003F4040403F001F2040201F005A
:100720003F4038403F00631408146300030478041A
:1007300003006159494D4300007F414141000204DB
:1007400008102000004141417F0004020102040022
:100750004040404040000003070800002054547807
:1007600040007F284444380038444444280038443A
:1007700044287F0038545454180000087E090200B1
:1007800018A4A49C78007F080404780000447D40ED
:1007900000002040403D00007F1028440000004140
:1007A0007F4000007C04780478007C080404780012
:1007B000384444443800FC18242418001824241811
:1007C000FC007C0804040800485454542400040429
:1007D0003F4424003C4040207C001C2040201C0062
:1007E0003C4030403C004428102844004C909090FD
:1007F0007C004464544C4400000836410000000072
:1008000077000000004136080000020102040200E7
:100810003C2623263C0003071F7FFFFFFEF8F0C0A5
:1008200020F8FEFFFE79271F7FFFFFFEF8F0C020B3
:10083000F8FEFFFF7F3F3F7FFFFEF8F0C0000000A3
:1008400000FFFFFFFFFFFF00000000000000FF7F30
:100850007F7FBFBFC0C0C0E0E0E0E0F0F0F0F8781C
:10086000787C3C3CFEFEFEFFFFFF00000000000025
:10087000000000008080BFBFDFDFEFEF0003071F35
:100880007FFFFFFFFEF8E0C0E0F8FEFFFFFF7F1FE5
:1008900007030000E0F0F0F0E0ECEEF7F37020006A
:1008A0007C7C7C7E007E7E7E7F7F7F000080C0E03F
:1008B0007E5B4F5BFEC00000C000DCD7DEDEDED713
:1008C000DC00C0000000000000000000000000008C
:1008D00000000000000000000000C1F3CFBF7FFF58
:1008E000FFFCFBE7810000000080E3CF3FFFFFFF3C
:1008F000FCFBE7810000000081E7FFFFFFFF3C00F9
:1009000000FFFFFFFFFFFFF8F8FC7C7E7E3EFEFF4E
:10091000FFFFFFFFF7F7F7FBFB7D7D7DBEBEBEDF70
:10092000DFE0E000FFFFFFFFFFFF00FCFC7C7E7EBE
:100930003E3E1F1F1F0FFFFFFFFFFFFF00000000D5
:100940000081E7FFFFFFFFFFFFFFFFFFE7810000E0
:10095000000000000F1F3F7F7F7F7F7F3F1E0C0046
:100960001F1F1F3F003F3F3F7F7F7F00307B7F780F
:1009700030202030787F3B0003000F7F0F0F0F7F68
:100980000F00030000000000000000000000000055
:1009900000000000000060707C7F7F7F7F1F0601E9
:1009A000030F3F7F7F7E7C7C7E7F7F7F1F0601075A
:1009B0000F3F7F7F7E7C7C7E7F7F3F0F03000000A8
:1009C000007F7F7F7F7F7F000000000000007F7F2F
:1009D0007F7F7F7F7D7D3D3E1E1F1F1F0F0F0707FF
:1009E000070303007F7F7F7F7F7F7C7C7C7C7C7C18
:1009F0007C7C7C7C7C007F7F7F7F7F7F0040707869
:100A00007E7F7F7F3F0F0301030F3F7F7F7F7E78D5
:100A10007040000000000000000000000000000026
:100A200000000000000000000000000000000000C6
:100A300000000000000000000000000000000000B6
:100A400000000000000000000000000000000000A6
:100A500000000000000011241FBECFEFDAE0DEBF6F
:100A6000CDBF11E0A0E0B1E0EEE7FBE502C00590EC
:100A70000D92AA3DB107D9F726E0AAEDB1E001C079
:100A80001D92A131B207E1F70E940A240C94692D4E
:100A90000C940000482F209102049091C90357E064
:100AA000291302C080E0089530E0529FF001539F67
:100AB000F00D1124E653FC4F8181681306C080813C
:100AC000481303C085818111EECF2F5F3F4F277000
:100AD000E7CFE8EDF0E080818E7F80831092E20026
:100AE0001092DA001092E100A0EEB0E08C918160EB
:100AF0008C9380818F77808319BCA7EDB0E08C91B7
:100B00008E7F8C9380818F7E80831092B2030895B4
:100B10002091E4003091E50095E6A9012091EC00D8
:100B2000822F817020FF06C08091E80080FF06C000
:100B300080E008952091E80022FD1AC08091BF0353
:100B4000882389F0853089F08091EB0085FD0FC006
:100B50002091E4003091E50042175307F9F29150DB
:100B6000E1F684E0089582E0089583E0089581E04D
:100B700008958091C10387FF13C08091E80082FF30
:100B800006C08091E8008B778093E80004C08091D4
:100B9000BF038111F2CF08958091BF038823D9F359
:100BA0008091E80080FFF8CF8091E8008E77ECCF4D
:100BB000982F9093E900242F762F50E0891731F079
:100BC0007091EC002091ED005091F00021FD07C0E4
:100BD0009F5F973071F78093E90081E0089530912D
:100BE000EB003E7F3093EB003091ED003D7F309382
:100BF000ED003091EB0031603093EB007093EC002E
:100C00002093ED005093F0002091EE0027FDE0CFFF
:100C100080E00895B0E0A0E0E0E1F6E00C945C2C08
:100C2000C8EDD0E088818F7E8883E7EDF0E0808199
:100C30008160808384E082BF81E08093B2038881F9
:100C40008E7F888302EE10E0F80110821092DA00A5
:100C500081EEC82ED12CF601108288818F7788838F
:100C600088818068888388818F7D888319BC1092F1
:100C7000BF031092C0031092BE031092BD0390EE0A
:100C8000E92EF12CF70180818B7F80838881816040
:100C9000888342E060E080E00E94D805F601808110
:100CA0008E7F8083F801808181608083808188606D
:100CB0008083F70180818E7F808388818061888333
:100CC000CDB7DEB7E8E00C94782CFC018091C70327
:100CD0009091C80386179707A0F06115710529F454
:100CE0009091E8009E779093E80090E0611571057F
:100CF00051F4911108C08091E80082FF34C080E077
:100D00000895BC01F2CF8091BF038823C1F18530E3
:100D1000C1F18091E80083FD30C08091E80082FD40
:100D2000EACF8091E80080FFE1CF8091F30020912D
:100D3000F200382F6115710519F02830310558F08F
:100D400091E02830310509F090E02091E8002E77FD
:100D50002093E800CBCF81918093F100615071091D
:100D60002F5F3F4FE7CF8091BF03882341F085304D
:100D700041F08091E80083FFBECF81E0089582E0DA
:100D8000089583E00895089508958091B403089527
:100D90002FB7F8946091AE037091AF038091B003C8
:100DA0009091B1032FBF0895EEEDF1E09191891379
:100DB00003C0DF0111971C9291E0E43EF907B1F7FF
:100DC0000895AEEDB1E0EFEF90E02D91821751F074
:100DD000EF3F19F4211101C0E92F9F5F9630A9F769
:100DE000EF3F09F408950E2E000CFF0BE452FE4F66
:100DF00082830895A3E0B0E0E0E0F7E00C94622C79
:100E00002091AB033091AC0328173907A1F09093E0
:100E1000AC038093AB03E091A903F091AA03309750
:100E200051F024E029839B838A830084F185E02D9F
:100E3000CE01019609952396E2E00C947E2CA3E066
:100E4000B0E0E5E2F7E00C94622C2091A70330912A
:100E5000A80328173907A1F09093A8038093A7034C
:100E6000E091A903F091AA03309751F023E0298380
:100E70009B838A830084F185E02DCE01019609953C
:100E80002396E2E00C947E2C8091A503882359F0F0
:100E9000E091A903F091AA03309729F00190F08125
:100EA000E02D0995089580E0089580919A0380FDD2
:100EB00016C081FD16C082FD16C08091990388235B
:100EC000A1F0883280F428E0829FC001112468E2FA
:100ED00070E00E94952C862F672B39F0089582E0F0
:100EE000089584E0089588E0089581E00895809150
:100EF0009A0380FD14C081FD14C082FD16C080914C
:100F00009803882381F08E3180F420E5829FC00110
:100F100011246EE170E00E94952C862F089584E1E3
:100F2000089588E2089588E0089580E50895282FBF
:100F300035EB2303C001112497FF04C080589109A9
:100F4000892F089580589F4FFBCFFC01680F791FB0
:100F50008FEF91E32191822728E030E087FF09C0DD
:100F6000880F892721503109C9F7E617F70791F74C
:100F70000895880FF7CF26E3611125E383B190E050
:100F80002F7002C0959587952A95E2F78170089594
:100F900026E3611125E334B12F7081E090E001C0B8
:100FA000880F2A95EAF7982F9095932394B995B1D5
:100FB000892B85B9089590919203E92FF0E0209153
:100FC00093032150330B23703327E217F307A9F063
:100FD000EC56FC4F282F2F7780818078822B60FB86
:100FE00087F980839F5F9370909392038091900321
:100FF0008F5F8093900381E0089580E00895FA0167
:10100000811101C0FB0109950895E7E9F2E0118221
:1010100082818460828308956091450180915A03A2
:1010200080FF0CC070E08091440123E0829FC001EA
:10103000112486569D4F0E948B0E08958091460183
:101040009091470123E0829FF0011124E656FD4F65
:10105000891740F71182108212828F5F3396F8CF82
:1010600090915A0390FF0EC0909146012091470144
:1010700033E0939FF0011124E656FD4F921718F0CC
:101080000E940C0808958183608342839F5F33969A
:10109000F5CF80915A03982F9C7F61F48370846010
:1010A00080935A0380915D03893718F088E7809315
:1010B0005D0308958C32B0F383708862F1CFAF92F4
:1010C000BF92DF92EF92FF920F931F93CF93DF9324
:1010D000082F162FE901E42FF0E0E858FD4F6111C9
:1010E00010C0E4915E2F4E2F4983E8835A83DF912D
:1010F000CF911F910F91FF90EF90DF90BF90AF9035
:101100000895E62EF12C4491D42EE42FF0E026E051
:10111000829FC00111242FEF30E0B9010E943E2CC4
:10112000802F90E0880F991F55E5569FD001579F5B
:10113000B00D11248A1B9B0B982F990F890F590111
:10114000AE18BF08AE9ED001AF9EB00DBE9EB00DD2
:1011500011245B2F189F80011124012F11275901A1
:10116000A01AB10AAE9E8001AF9E100DBE9E100D5A
:1011700011245901A81AB108AE9CC001AF9C900D72
:10118000BE9C900D1124892F9927281B390B2E9F67
:10119000C0012F9F900D3E9F900D1124E92F6230CA
:1011A0007105A1F050F46115710509F49DCF61300E
:1011B000710581F0EB2F512F97CF6430710569F0E5
:1011C00080F06630710509F48FCFF4CFE42F4B2FF8
:1011D000592F8ACFE42F412F87CFEB2F542F492F40
:1011E00083CF4B2F5D2DE12F7FCFA3E0B0E0EBEF5E
:1011F000F8E00C94602C8C0180915A0380FF13C09E
:1012000040915D03493708F048E79E012F5F3F4F4B
:1012100060915C03F80184810E945F084B816981C1
:101220008A810E943008F80184818F5F848323962D
:10123000E4E00C947C2CEF92FF921F93CF93DF930A
:10124000EC0110E0EE24EA94F12C609148011617AD
:1012500070F00E940C089A818C8190FF2AC08F5FE9
:101260008C83DF91CF911F91FF90EF900895209193
:101270004601422F410F5527551FCA019A01220FDF
:10128000331F280F391F26563D4F40915D034937C4
:1012900008F048E770E0C7010E94952C962F8C81DA
:1012A00060915C03199F800D11240E945F081F5FED
:1012B000CCCF8150D5CF80E0089581E080938F021C
:1012C0000895F894E82FE295EF70F0E031A1282F0F
:1012D0002F7081E090E001C0880F2A95EAF7982FDF
:1012E0009095932391A392A1892B82A3789408953A
:1012F0000F931F938091A503882329F00E94C806AD
:101300001F910F9108950E94C80600915E021091EE
:101310005F022091600230916102600F711F821F95
:10132000931FEECF9091620392FF10C041E0282FEF
:101330002471243009F040E031E0282F2871283052
:1013400009F030E0431711F02CE0822793FF10C022
:1013500041E0282F2471243109F040E031E0282FAA
:101360002871283109F030E0431711F02CE0822772
:101370003091630330FF10C051E0282F21712130DC
:1013800009F050E041E0282F2871283009F040E0B2
:10139000541711F029E0822731FF10C041E0282FB7
:1013A0002171213109F040E031E0282F28712831E6
:1013B00009F030E0431711F029E0822794FD877E81
:1013C000089582389105B9F1B0F48133910509F49B
:1013D0007DC048F48932910509F46DC08A329105C7
:1013E00009F47BC008958533910509F45FC0893302
:1013F000910509F10895833E9105D9F138F4803EB5
:10140000910529F1823E910579F10895863E910575
:10141000D9F1873E910509F43EC0843E910541F51E
:101420002091630321FF24C08091620384FD19C0D1
:1014300087EE90E0089520916203237009F05AC06E
:101440002091630323FF14C089E290E00895209166
:10145000620320FD38C03091630330FF09C024FFD0
:1014600043C090E080E008952091620322FDF7CF11
:1014700008952091620322FD3AC03091630330FD4C
:1014800039C024FFF5CFEDCF2091620323FFF0CFC9
:1014900024FDE7CFCDCF2091620323FD2EC03091F4
:1014A000630331FFEECF84EE90E008952091620354
:1014B00025FFDECFC9CF2091620325FD21C02091F9
:1014C000630323FFD5CF89E390E0D2CF209162035D
:1014D00026FFCECF8AE290E008952091620326FF96
:1014E000C7CF81E390E0089583EE90E0089582EE07
:1014F00090E0089580EE90E0089586EE90E00895E3
:1015000085E390E00895972F7A30B8F46730A8F417
:101510008330B0F470E027E0929F600D711D1124BC
:10152000FB0196E4899FE00DF11D1124EE0FFF1FD2
:10153000E455FF4F85919491089580E090E00895DF
:1015400081E0FCCF1F93CF93DF930E94E109EC0170
:10155000C11580E5D807F0F5C11580E4D80708F07B
:101560009CC0C03ED10520F5CD3CD10508F082C01D
:10157000C83AD10578F4C53AD10508F073C0C13036
:10158000D10519F1209709F1C430D105F0F4D0E06C
:10159000C0E01BC0C33CD105D0F7C85AD0E0CC0F87
:1015A000DD1FC859DE4F0990D881C02DD4640DC00D
:1015B000C11580E2D80708F0D1C0C11581E0D80775
:1015C00008F05AC0C83ED10510F7CE01DF91CF9187
:1015D0001F910895C03682E5D80718F5C03482E51A
:1015E000D80708F06BC0C03282E5D80708F05FC0AA
:1015F000C11582E5D80708F497C02C2F26952695AB
:1016000080E2289F900111248C2F8370C1E0D0E0EC
:1016100002C0CC0FDD1F8A95E2F7C22BD32BDD6809
:10162000D4CFC03A82E5D80760F4C03882E5D80745
:1016300008F459C0CF71D0E0DC2FCC27C46FD06A3A
:10164000C4CFC03C82E5D80708F462C0C03E82E542
:10165000D80708F09CCFDC2FCC27CC27DF71C06FD8
:10166000D06AB3CFC55AD0E0CB59DE4FC881D0E0A5
:10167000D064ABCFD065A9CF8D2F0E949209182FCF
:10168000CE0199270E94E109C12FD0E0DC2FCC27A1
:10169000CC27DF71C82BD92B98CFCE0199270E9478
:1016A000E109CC27DF70C82BD92BD06A8ECFCF7140
:1016B000D0E0DC2FCC27C16FD06A87CF2C2F2695A6
:1016C0002695277080E2289F900111248C2F83702B
:1016D000C1E0D0E002C0CC0FDD1F8A95E2F7C22B3B
:1016E000D32BDC6872CF2C2F26952695277080E2AD
:1016F000289F900111248C2F8370C1E0D0E002C09C
:10170000CC0FDD1F8A95E2F7C22BD32BDA685DCFB1
:101710008C2F8F710E949209C82FD0E0DC2FCC272C
:10172000CC27DF71D06251CF8C2F8F710E9492092C
:1017300055E0D695C7955A95E1F7CF70D0E0DC2FEC
:10174000CC27282F30E084FF05C044E0220F331F50
:101750004A95E1F7C22BD32BD06937CF8D2F8F71EC
:101760000E949209182FCE0199270E94E109C12FEA
:10177000D0E0DC2FCC27CC27DF71C82BD92BD2CFE0
:10178000809590911C02982390931C02089580915B
:1017900002049091C903981301C008958F5F877068
:1017A000FACFB0E0A0E0E7EDFBE00C945B2C7C010D
:1017B000009164031091650380916E0290916F0215
:1017C000082B192BCFE0D0E0CC24C394D12CBC2E15
:1017D000C6010C2E02C0880F991F0A94E2F78023DD
:1017E0009123892B49F4219790F7B12C8B2DCDB7FC
:1017F000DEB7E9E00C94772CB7018C2F0E94830AA6
:101800000E94A20A019779F3F1CFCF93DF93EC0105
:101810000E94D10BBE010E94830A0E94A20ADF919E
:10182000CF9108959A3078F5873068F5E82FF0E089
:1018300087E0989FE00DF11D11249E2F977083E0A3
:10184000F695E7958A95E1F7EE0FFF1FEE0FFF1F64
:10185000EA51FE4F50E040E080E0219130E0092E57
:1018600002C0369527950A94E2F721703327042E9B
:1018700001C0220F0A94EAF7822B4F5F5F4F44307A
:10188000510559F7089580E008959A3098F587300A
:1018900088F5E82FF0E087E0989FE00DF11D112416
:1018A0008E2F877041E001C0440F8A95EAF783E0EC
:1018B000F695E7958A95E1F7EE0FFF1FEE0FFF1FF4
:1018C000EA51FE4F30E020E070E05191DF011197C6
:1018D000CB01022E02C0969587950A94E2F781709B
:1018E00081958527842385278C932F5F3F4F243054
:1018F000310559F708959093650380936403089523
:1019000021E030E002C0220F331F8A95E2F72095D4
:1019100030958091640390916503822393230E9404
:101920007B0C089590911102809589238093110278
:10193000282F277069F4891759F09091630392FF5B
:1019400007C08695869586950E94800C109211029C
:10195000089521E030E002C0220F331F8A95E2F79C
:101960008091640390916503822B932B0E947B0CE2
:10197000089590936F0280936E020895FC01248174
:101980002223C1F0808191810E94050C92959F7065
:10199000963091F058F4925F9F70923058F4803FE7
:1019A00019F030F4883E30F481E008959A5FF4CF66
:1019B000843FD1F380E00895883EB0F3813FD1F7B2
:1019C000F3CFA6E0B0E0E7EEFCE00C94612C498395
:1019D0005A8349815A819923A1F0222391F0CA01A7
:1019E0000E94D10B182F682F89819A810E94450C83
:1019F00069817A81812F0E94830A2696E3E00C9404
:101A00007D2CCA010E94120C182FF2CFCF93DF93C6
:101A1000FC01EB016A3071054CF0CB016AE070E02B
:101A20000E94952CCF010E94060DFC01CE016AE0B8
:101A300070E00E94952CDC01AF5ABE4F8C918083E0
:101A40001182CF010196DF91CF910895CF93DF935B
:101A5000C0910F06D09110068A30C1F4209106047F
:101A6000CE0189509440622F70E00E943E2C281BCA
:101A7000822F66E00E94892CC82FC15018F4DF9194
:101A8000CF91089580E20E94260DF7CF8D30E9F4C2
:101A9000C950D44020910604622F70E0CE010E940C
:101AA0003E2C281B822F9E01280F311D211532400C
:101AB00018F080E0D0E0C0E0C80FD11DC75FDB4F59
:101AC000D0931006C0930F06DACF96E0FE01A9E08E
:101AD000B6E001900D929A95E1F7803E08F458C067
:101AE00086E0FE0111928A95E9F7C0910F06D09128
:101AF000100646E050E0BE0189E096E00E94FB2C13
:101B00009E0129503440892B41F1C90145E0969549
:101B100087954A95E1F741E050E0BA0102C0660FAF
:101B2000771F8A95E2F7CB01609107047091080452
:101B3000862B972BB9016B5F7F4FE5E07695679514
:101B4000EA95E1F702C0440F551F6A95E2F7842B2E
:101B5000952B90930804809307042A5F3F4F409190
:101B60000604642F70E0C9010E943E2C481B4630D9
:101B700010F4240F311D211572E0370710F030E00A
:101B800020E0275F3B4F3093100620930F0677CF5E
:101B9000F6E08F9FB00111246A5E7A4F46E050E074
:101BA000CE010E94E52CA1CFCF93DF93EC01FE0183
:101BB0008491811103C0DF91CF9108950E94260D79
:101BC0002196F5CF20911C0280911302282B809141
:101BD0001202882381F0282B30E08EED91E0FC0189
:101BE0004191CF0141113F5FF1E0843E9F07B9F77A
:101BF0003111109212022093DC0148E050E064E1C0
:101C000072E08CED91E00E94FB2C892BA9F088E01A
:101C1000ECEDF1E0A4E1B2E001900D928A95E1F7DC
:101C2000E091A903F091AA03309731F00280F3818B
:101C3000E02D8CED91E009950895882321F00E9414
:101C4000C00B0E94E20D0895882339F090911C0288
:101C5000982B90931C020E94E20D08950F931F93FE
:101C6000CF93DF938B01EA019091BF03943061F52C
:101C70008093E9008FEF9091E800815095FD06C0B8
:101C800095ED9A95F1F700008111F5CF8091E8006C
:101C900085FF1AC00E948805811111C08091E8005B
:101CA00085FD06C08091E8008E778093E800F2CF32
:101CB000F80181918F018093F100219779F780914C
:101CC000E8008E778093E800DF91CF911F910F910C
:101CD000089543E050E0BC0182E00E942E0E08957A
:101CE00046E050E0BC0182E00E942E0E0895CF93A2
:101CF000DF93EC0148E050E0BC0181E00E942E0E31
:101D000088E0FE01A5EBB3E001900D928A95E1F722
:101D1000DF91CF910895539A4BB1477F5BB15860E3
:101D2000EFB7F8949B01220F331F260F371F280FA0
:101D3000391F2817390741F4EFBF8FE594E0019769
:101D4000F1F700C000000895DC016D91CD0178E04D
:101D50005BB9000000C067FF4BB9660F000000C010
:101D600000C000C04BB900C07A9591F7E2CFB0E057
:101D7000A0E0EDEBFEE00C945A2C7C015B016A01C3
:101D800080915D0201E010E08A3010F40AE010E07A
:101D9000C1E0D0E0B501C701F6010995811104C089
:101DA00021960C171D072CF4CDB7DEB7EAE00C9492
:101DB000762CCC9F9001CD9F300D300D112490E0FA
:101DC00080E045E34A95F1F70000019682179307FA
:101DD000C1F7E0CFAB0124E630E0BC0188E70E9408
:101DE000F22921E0892B09F020E0822F08958091CB
:101DF0008C0390918F03911103C091E0892708957E
:101E0000882369F062E070E08AE793E00E94EA0EBE
:101E1000811103C080918C03089510928C038091EE
:101E20008C03EBCFCF93C0918C0380918F038823D9
:101E3000D1F00E94C806605A75418F4F9F4F609342
:101E400088037093890380938A0390938B03C11155
:101E500008C062E070E088E793E00E94EA0E81111A
:101E600005C0C0918C038C2FCF91089581E08093A1
:101E70008C03F7CFB0E0A0E0E0E4FFE00C94582C36
:101E800049015A016B017C010E9449088401A401A7
:101E90006A2D7B2D88E090E00E94472D94014A2D09
:101EA0005B2DB601C70100E20E94CA2C622F84E2BA
:101EB00090E00E94352DCDB7DEB7ECE00C94742C89
:101EC000A3E0B0E0E6E6FFE00C945E2C182FF62EBF
:101ED000042FE22E80915A0380FF44C090915B034F
:101EE000911308C020915C03261304C020915D0368
:101EF000241729F020919902226020939902E82F5B
:101F0000E695E695F0E0EA53FE4F20812093970294
:101F10008C7F843059F5402F093708F048E79E013F
:101F20002F5F3F4F6F2D812F0E945F084B8169818A
:101F30008A810E94300810935B03F0925C03009347
:101F40005D03EE2079F020915A0360915E03709159
:101F50005F03312F4F2D502F8091600390916103CB
:101F60000E943A0F2396E6E00C947A2C223011F06E
:101F7000253009F7192FDFCFEAE5F3E0438121E1AE
:101F8000421B08F440E021E0628181810E94600FE1
:101F90000895EAE5F3E0438121E1420F08F44FEFB1
:101FA00021E0628181810E94600F0895EAE5F3E0FB
:101FB000628121E1621B08F460E021E043818181BC
:101FC0000E94600F0895EAE5F3E0628121E1620F6B
:101FD00008F46FEF21E0438181810E94600F089532
:101FE000EAE5F3E0818121E04381628188500E942B
:101FF000600F0895EAE5F3E0818121E04381628189
:10200000885F0E94600F089580915E03882319F015
:10201000815080935E0320915A0330915B0340917D
:102020005C0350915D0360915E0370915F0380914A
:102030006003909161030E943A0F089580915E03BE
:10204000833018F48F5F80935E0320915A033091A0
:102050005B0340915C0350915D0360915E0370915E
:102060005F0380916003909161030E943A0F08958D
:102070009091630392FB222720F9281779F080FBC7
:1020800092F990936303609162037091630384E01B
:1020900090E00E94532D82E00E94920C0895ABE0E4
:1020A000B0E0E5E5F0E10C94622C88E0EAE5F3E0CD
:1020B000DE01119601900D928A95E1F780919702C9
:1020C00090919802A091990289879A87AB872B8576
:1020D0004091590250915A0260915B0270915C02EA
:1020E0003FB7F8948091AE039091AF03A091B003F5
:1020F000B091B1033FBF841B950BA60BB70B843681
:102100009105A105B10510F4222319F18091310147
:1021100090913201855C9D4F4091300150E04C30F0
:10212000510510F04BE050E0BE016F5F7F4F0E9401
:10213000082D86E090E00E94C82B882369F00E9459
:10214000C8066093590270935A0280935B02909381
:102150005C021092990281E02B96E2E00C947E2CB6
:10216000A4E0B0E0E6EBF0E10C94612C4091370282
:10217000509138026091390270913A022FB7F89469
:102180008091AE039091AF03A091B003B091B103E1
:102190002FBF841B950BA60BB70B11E0843691055E
:1021A000A105B10570F10E9478096E5F7F4F8F4FD6
:1021B0009F4F69837A838B839C83809129019091BF
:1021C0002A01855C9D4F4091280150E04530510522
:1021D00010F044E050E0BE016F5F7F4F0E94082D79
:1021E00085E090E00E94C82B182F882351F00E94B0
:1021F000C806609337027093380280933902909337
:102200003A02812F2496E3E00C947D2C4F925F924A
:102210007F928F929F92AF92BF92CF92DF92EF9276
:10222000FF920F931F93CF93DF930F92CDB7DEB73B
:10223000C62E4A015901482E880F5508C2010E9436
:10224000C82B782E882309F480C0C20133E0880FA0
:10225000991F3A95E1F7FC01E050FF4F438150E0B0
:102260004115510511F041E050E080509F4FFC01B5
:1022700064817581655C7D4FCE0101960E94082DB9
:10228000F40140815181628173812FB7F89480916C
:10229000AE039091AF03A091B003B091B1032FBFF3
:1022A000841B950BA60BB70B84369105A105B105D0
:1022B00040F4B701C8010E94A5079981891709F464
:1022C00044C00C2C000CDD08C6010E94C82B782EDF
:1022D000811113C0712C872D0F90DF91CF911F9129
:1022E0000F91FF90EF90DF90CF90BF90AF909F90B5
:1022F0008F907F905F904F900895C60123E0880FE4
:10230000991F2A95E1F7FC01E050FF4F438150E00F
:10231000E416F50608F4A70180509F4FFC01648184
:102320007581655C7D4FC5010E94082DB701C8010C
:102330000E94A50799818913CDCF0E94C806F40198
:102340006083718382839383C6CFA701B801C501DF
:102350000E94082DC0CFA8E0B0E0E1EBF1E10C94C1
:102360005E2C88E0E82EF12C02E412E09E012F5F43
:102370003F4F43E352E063E082E00E940611082FE2
:10238000882389F19091410280913202981759F186
:1023900010E090914502809144028917F1F0E92FF5
:1023A000F0E0E15CFD4F878187FB662760F99F5F66
:1023B000937090934502909143029F5F90934302E4
:1023C0008F770E94DB07182F8111E3CF84E090E024
:1023D0000E94C82B012F082302C01111F7CF809152
:1023E000410280933202802F2896E6E00C947A2CEA
:1023F000A5E0B0E0EEEFF1E10C945C2C6B0185E020
:10240000E82EF12C0CE312E09E012F5F3F4F4EE2CD
:1024100052E061E080E00E940611882349F095E0D7
:10242000FE013196A9E2B2E001900D929A95E1F792
:1024300095E0E9E2F2E0D60101900D929A95E1F77C
:102440002596E8E00C94782C1F920F920FB60F920D
:1024500011242F933F934F935F936F937F938F93A9
:102460009F93AF93BF93EF93FF938091E10082FF1F
:1024700009C08091E20082FF05C08091E1008B7F5E
:102480008093E1008091DA0080FF24C08091D80021
:1024900080FF20C08091DA008E7F8093DA008091E7
:1024A000D90080FF9DC080E189BD82E189BD09B46A
:1024B00000FEFDCF81E08093BF038091B2038111C4
:1024C00009C00E9469050E940A068091E2008460AA
:1024D0008093E2008091E10080FF17C08091E200CC
:1024E00080FF13C08091E2008E7F8093E200809194
:1024F000E20080618093E2008091D8008062809346
:10250000D80019BC85E08093BF038091E10084FF6F
:102510002BC08091E20084FF27C080E189BD82E169
:1025200089BD89B5982F917080FFFBCF8091D8002D
:102530008F7D8093D8008091E1008F7E8093E100B1
:102540008091E2008F7E8093E2008091E2008160C2
:102550008093E2008091C003882309F447C084E09F
:102560008093BF038091BF038091E10083FF27C068
:102570008091E20083FF23C08091E100877F8093F8
:10258000E10082E08093BF031092C0038091E100DC
:102590008E7F8093E1008091E2008E7F8093E20045
:1025A0008091E20080618093E20042E060E080E0A0
:1025B0000E94D8058091F00088608093F000FF9120
:1025C000EF91BF91AF919F918F917F916F915F91AB
:1025D0004F913F912F910F900FBE0F901F90189524
:1025E00019BC1092BF031092B20374CF8091E30024
:1025F00087FD93E09093BF03B5CF78941F921FB6E9
:102600001F9211248F939F93AF93BF938091AE033A
:102610009091AF03A091B003B091B1030196A11DB9
:10262000B11D8093AE039093AF03A093B003B0931A
:10263000B103BF91AF919F918F911F901FBE1F90CB
:1026400018959C014FB7F8948091AE039091AF0319
:10265000A091B003B091B1034FBF821B930B0895BB
:102660002FB7F8948091AE039091AF03A091B0037F
:10267000B091B1032FBF08950E9430139C01909137
:10268000A1038091A203982B21F030939E03209305
:102690009D039091A3038091A403982B21F0309384
:1026A0009C0320939B03E091A903F091AA03309728
:1026B00049F082E080939F030680F781E02D8FE947
:1026C00093E009950895CF9310921C02C6E0EEEDB9
:1026D000F1E0DF018C2F1D928A95E9F790E080E010
:1026E0000E941F0790E080E00E94FA0610921302F9
:1026F0000E94E20DEFE9F3E0DF011D92CA95E9F7D0
:10270000109298031092990310929A030E943C131E
:10271000CF910895AAE2B0E0E0E9F3E10C94612CD6
:1027200081EC93E02091F100FC012193CF01F3E0D3
:10273000893C9F07B9F78091C203833009F470C0C8
:10274000B8F4813009F447C0823009F4B1C08091F7
:10275000E80083FF7EC28091C1039091C2039A304A
:1027600008F077C2E92FF0E0E559F24D0C94A92C5E
:102770008A3009F48CC08B3009F46FC0893039F786
:102780008091C103813219F78091C5039091C603EE
:102790000297E8F68091E800877F8093E8008091B7
:1027A000E80082FF38C09091F3008091F200029718
:1027B00031F48091F100813011F0863021F4809164
:1027C000F1008093B4038091E8008B778093E80058
:1027D0000E94B905BCCF8091C103813A09F0B7CFFF
:1027E0008091E800877F8093E8008091C5039091F5
:1027F000C603892B61F468E085EB93E070E00E94EA
:1028000065068091E8008B778093E800A0CF60E0B8
:1028100090E080E0F3CF8091BF038111C0CF97CFCC
:102820008091C103813A09F092CF8091C5039091C4
:10283000C603892B09F08BCF8091E800877F8093B6
:10284000E8008091E80080FFFCCF809150018093E8
:10285000F1008091E8008E77B9CF8091C103813279
:1028600009F075CF8091C5039091C603892B09F0BB
:102870006ECF8091E800877F8093E8000E94B905C1
:102880008091C303809350010E94631360CF8091B5
:10289000C103813209F05BCF8091E800877F80938C
:1028A000E8000E94B9058091C4038093B3034FCF21
:1028B0008091C103813A09F04ACF8091E800877F77
:1028C0008093E8008091E80080FFFCCF8091B30303
:1028D000BECF803899F0823809F0BBC18091C50322
:1028E0008F70873008F0B5C18093E9008091EB00CC
:1028F00085FB882780F91092E90006C08091BD030E
:102900009091BE03911182609091E800977F90931F
:10291000E8008093F1001092F1008091E8008E773A
:1029200094C1882309F482C1823009F092C1809158
:10293000C303811185C18091C5038F702FEF280FCC
:10294000263008F086C18093E9002091EB0020FF3B
:1029500077C1933031F48091EB0080628093EB007B
:102960006FC19091EB0090619093EB0021E030E01B
:1029700001C0220F8A95EAF72093EA001092EA003C
:102980008091EB008860EACF811163C11091C3038D
:102990001F778091E3008078812B8093E300809102
:1029A000E800877F8093E8000E94B9058091E800E5
:1029B00080FFFCCF8091E30080688093E30082E099
:1029C000111183E08093BF0344C18058823008F026
:1029D00040C18091C3039091C4038C3D23E09207D2
:1029E000A1F583E08A838AE289834FB7F894DE01F8
:1029F000139620E03EE051E2E32FF0E050935700C1
:102A0000E49120FF03C0E295EF703F5FEF708E2FDF
:102A100090E0EA30C0F0C7968D939D932F5F2431EC
:102A200059F74FBF8091E800877F8093E8006AE202
:102A300070E0CE0101960E9465068091E8008B77D8
:102A40008093E80006C1C096E7CF4091C50350913E
:102A5000C603292F33272330310509F444C078F504
:102A60002130310509F46FC08BE390E0EBE8F4E02E
:102A70002230310509F0EDC02091E800277F209336
:102A8000E8002091C7033091C8038217930708F428
:102A90009C0140E02115310509F064C0411162C07C
:102AA0008091E80082FDC9CF8091BF03882329F27D
:102AB000853019F28091E80083FFF2CFBECF21323A
:102AC0003105A9F12232310509F0C3C04115510584
:102AD00009F443C04130510509F0BBC08BE790E0D9
:102AE000ECECF3E0C9CF992781309105C1F0009754
:102AF00059F0029709F0ADC0E8EDF4E0E4918E2FB3
:102B000090E0E8EDF4E007C0E2E1F5E0E4918E2F1B
:102B100090E0E2E1F5E0009709F49BC0ADCFECEF67
:102B2000F4E0E4918E2F90E0ECEFF4E0F4CF411567
:102B3000510571F04130510509F08BC089E090E0FA
:102B4000E6EBF4E099CF82E190E0E6ECF4E094CF9C
:102B500089E090E0EDE9F4E08FCF84E490E0E7E4F1
:102B6000F4E08ACF8091BF03882309F466CF8530D3
:102B700009F463CF8091E80083FD5FCF8091E80086
:102B800082FD8ECF8091E80080FF84CF9091F3008A
:102B90008091F2002115310519F08830910550F02F
:102BA00041E0089709F040E08091E8008E7780933B
:102BB000E80070CF44914093F100319621503109E3
:102BC0000196E8CF803809F044C08091E800877F03
:102BD0008093E8008091C0038093F1009ECE811124
:102BE00038C01091C3031230A0F58091E800877FB0
:102BF0008093E8001093C0030E94B905112311F0DF
:102C000084E005C08091E30087FDFACF81E08093E6
:102C1000BF0342E061EC81E00E94D80542E261EC32
:102C200082E00E94D8058091BF0313C08091C30346
:102C3000813079F481E0933009F080E08093BE0325
:102C40001092E9008091E800877F8093E8000E945D
:102C5000B9058091E80083FF0AC08091E800877F72
:102C60008093E8008091EB0080628093EB00AA964D
:102C7000E3E00C947D2C1F920F920FB60F9211245B
:102C80002F933F934F935F936F937F938F939F9374
:102C9000AF93BF93CF93DF93EF93FF93D091E9006E
:102CA000DF708091EC00C82FC17080FDC0E81092E9
:102CB000E9008091F000877F8093F00078940E9473
:102CC0008A131092E9008091F00088608093F000F0
:102CD000CD2BCF70C093E900FF91EF91DF91CF91A1
:102CE000BF91AF919F918F917F916F915F914F9124
:102CF0003F912F910F900FBE0F901F9018950E943B
:102D000063132FEF84E39CE0215080409040E1F773
:102D100000C0000088E19AE00FB6F894A89580936F
:102D200060000FBE90936000FFCF4091A10390918F
:102D3000A3032091A403662309F469C0942B922B6A
:102D40002091A203922B31F098E09093980391E0A8
:102D5000909399038D3C41F40E947707819580936D
:102D6000A2030E943C1308958E3C19F40E94770739
:102D7000F6CF8F3C31F40E94770781958093A103B1
:102D8000F0CF803D19F40E947707F8CF893D29F4F0
:102D90000E9455078093A303E4CF8A3D21F40E944B
:102DA00055078195F7CF8B3D31F40E9455078195EA
:102DB0008093A403D6CF8C3D19F40E945507F8CF19
:102DC0009FE2980F983070F4815D990B21E030E01C
:102DD00001C0220F8A95EAF78091A003822B80938D
:102DE000A003BFCF8D3D31F480919A038160809321
:102DF0009A03B7CF8E3D21F480919A038260F7CF7A
:102E00008F3D09F0AECF80919A038460F0CF8D3C66
:102E100059F48091A20387FF0DC01092A2034111C3
:102E20000BC01092980308C08E3C81F48091A203DD
:102E300018169CF3442381F08091A3039091A4037E
:102E4000892B09F08ECF109299038BCF8F3C49F4D8
:102E500047FFF0CF1092A1038091A2038111ECCF24
:102E6000E0CF803D19F41416ACF3E4CF893D29F48A
:102E7000191604F71092A303DDCF8A3D19F497FFCA
:102E8000D9CFF8CF8B3D29F427FFD4CF1092A403DC
:102E9000D1CF8C3D19F41216CCF3CCCF9FE2980F12
:102EA000983090F4815D990B21E030E0B90102C0C7
:102EB000660F771F8A95E2F7CB0180959091A0036A
:102EC00089238093A003B6CF8D3D31F480919A037E
:102ED0008E7F80939A03AECF8E3D21F480919A032A
:102EE0008D7FF7CF8F3D09F0A5CF80919A038B7F1F
:102EF000F0CF882309F456C0823879F40E94440741
:102F000081FF50C089E30E94E1060E94E20D89E33F
:102F10000E94D4060E94E20D0895833859F40E945D
:102F2000440780FF3FC083E50E94E1060E94E20D56
:102F300083E5EECF843859F40E94440782FF32C003
:102F400087E40E94E1060E94E20D87E4E1CF9CEF56
:102F5000980F913AE8F290E2980F983050F4877009
:102F600091E001C0990F8A95EAF7892F0E94C00B62
:102F7000D1CF9BE5980F933028F490E080E00E9439
:102F80001F07089598E5980F9B3128F490E080E0A2
:102F90000E94FA06089593E3980F933118F460E0C5
:102FA0000E9495160895CF93C82F8823C9F08238C0
:102FB000C9F40E94440781FD13C089E30E94E10621
:102FC0000E94E20D2FEF87EE93E021508040904069
:102FD000E1F700C0000089E30E94D4060E94E20DE0
:102FE000CF9108958338A1F40E94440780FDF8CF63
:102FF00083E50E94E1060E94E20D2FEF81EE94E04E
:10300000215080409040E1F700C0000083E5E4CF0C
:103010008438A1F40E94440782FDE2CF87E40E9435
:10302000E1060E94E20D2FEF81EE94E021508040F6
:103030009040E1F700C0000087E4CECF8CEF8C0F0A
:10304000813A70F4EEEDF1E084EE91E02191C21747
:10305000E1F18E179F07D1F78C2F0E94E106BECFBA
:1030600080E28C0F883068F4C77021E030E001C046
:10307000220FCA95EAF780911C02822B80931C02D2
:10308000ADCFEBE5EC0FE33040F4F0E0EB59FE4F51
:10309000808190E00E941F07A3CFE8E5EC0FEB31A1
:1030A00050F4F0E0EE0FFF1FE859FE4F8081918150
:1030B0000E94FA0695CF83E38C0F833108F090CFFE
:1030C00061E08C2F0E9495168BCF8C2F0E94D40626
:1030D0000E94E20DC1CF0F931F93CF93DF93C62FB2
:1030E000D42F022FFC0185818823A9F06093050469
:1030F0000E9430139093040480930304C77081E00E
:1031000001C0880FCA95EAF70E94240EDF91CF9183
:103110001F910F91089580910504681335C0809127
:103120000304909104040E942113883C910560F5EA
:1031300010E21D0FCD17B9F080E28C0F883040F4FB
:10314000C77081E001C0880FCA95EAF70E941D0E82
:10315000183048F481E09D2F977001C0880F9A9530
:10316000EAF70E94240E802F0E94D317802F0E941E
:103170007917183058F6D77081E001C0880FDA95BA
:10318000EAF70E941D0EC2CFC77081E001C0880F10
:10319000CA95EAF7F6CF80E09091930320919203CD
:1031A000291749F1E92FF0E0EC56FC4F20819F5F91
:1031B000937090939303809191038F5F8093910319
:1031C00027FD0BC08AEA0E94D3178FE39CE9019781
:1031D000F1F700C000008AEA0AC089EA0E94D3170A
:1031E0008FE39CE90197F1F700C0000089EA0E9493
:1031F000791781E0D1CF0895A6E1B0E0E2E0F9E1EE
:103200000C94532C80918F03882309F48AC08091F9
:103210008D0390918E030E942113C29708F462C01F
:103220000E94301390938E0380938D0389E094E085
:103230009093100680930F068091A503882309F4CC
:1032400090C08091620382FD70C080EC93E00E9488
:10325000D40D8EEB93E00E94D40D83EC93E00E949A
:10326000D40D8091640390916503292F3327211594
:10327000310509F465C0C90128E0AC0174E0569538
:1032800047957A95E1F74115510511F02C5FCA0178
:10329000AC0156954795569547954115510511F046
:1032A0002E5FCA0196958795892B09F02F5F622FB3
:1032B00070E0ECE5F1E0CE0101968C013191311125
:1032C00041C02A3008F442C0FC0110820E94060D61
:1032D000F80101900020E9F7CF0101977C010E155C
:1032E0001F05C8F18091070490910804892BF1F51E
:1032F00080918C038823A9F00E94C806009188035E
:103300001091890320918A0330918B03601B710B0C
:10331000820B930B6F3F7F4F8F4F9F4710F40E949C
:10332000F70E6696E1E10C946F2C86EC93E00E9418
:10333000D40D8CEB93E00E94D40D89EC93E08FCFF9
:1033400020E09BCFDC013D93CD01B8CF20E2DC0132
:103350002D93CD01BBCFD8018D918D010E94260DFB
:10336000BECF8CE793E00E94D40DBCCF80918F0339
:10337000882309F4BDCF809187038111B9CF0E94C2
:10338000120F20910704309108042115310509F42A
:10339000AFCF80E041E050E0082F10E07A01082E26
:1033A00002C0EE0CFF1C0A94E2F7B70162237323FC
:1033B000672B11F48F5FF0CF9091860390FF9CC034
:1033C000880F880F880F80934B0110924E01895F00
:1033D00080934C0183E080934F0124E630E047E086
:1033E00050E069E471E088E70E94AE29892B09F07A
:1033F0007FCFA80125E0440F551F2A95E1F7809162
:10340000860380FF8BC0E6E6F3E080E2DF011D92D9
:103410008A95E9F7E5EDF1E0FE8BED8B01ED11E02A
:1034200089EDA82E81E0B82E97E0392E44244394EC
:10343000AD89BE898D91BE8BAD8BF80121918F0135
:10344000240F352F311D275F3B4FE82FF0E0EA595D
:10345000FC4F90E080E0632C681A742C082E01C0A9
:10346000770C0A94EAF76901812CD6019D906D01D1
:103470009720662D68196770562E062E000C770B64
:10348000B92D01C0BB0F5A94EAF771956195710986
:103490006770772701C096946A95EAF79B2A608146
:1034A000562E59285082839468E08612DECF01960A
:1034B00031968830910579F68D899E89A816B906CE
:1034C00009F0B6CF04E610E020E230E046E653E033
:1034D00060E488E70E94382A892B09F009CFE0943C
:1034E000F0948091070490910804E822F922F09268
:1034F0000804E0920704FCCE8295880F80768093C2
:103500004B019801369527953695279520934E01C6
:10351000815E80934C0120934F015FCF475F5B4FEB
:1035200004E610E020E230E0D3CF8091A5038823A9
:1035300019F00E94301308950E947809CB01089574
:1035400060915A036695669570E041E050E083E42F
:1035500091E00E94EE2C892B19F481E0809398026F
:103560000E94951A90939202809391028091990201
:10357000846080939902089590915A0390FF3AC015
:103580009370811138C0946090935A03809199028E
:10359000816080939902662391F020915A033091C3
:1035A0005B0340915C0350915D0360915E037091F9
:1035B0005F0380916003909161030E943A0F6091D4
:1035C0005A036695669570E041E050E083E491E02F
:1035D0000E94EE2C892BB9F00E94050881E08093AF
:1035E000940220E040915D0360915C0380915B0355
:1035F0000E94600F08958B3010F09862C5CF880F3D
:10360000880F982BC1CF0E94A01AE8CF80915A034F
:1036100086958695815009F48AE061E00E94BC1A83
:10362000089580915A03869586958F5F8B3008F0B8
:1036300081E061E00E94BC1A089590915A0390FFC6
:1036400009C096959695981728F0961718F40E9439
:10365000111B089561E00E94BC1A0895B0E0A0E03B
:10366000E4E3FBE10C945A2C8C01FC018481882357
:1036700041F121E0408151816281738195810E94F5
:10368000E10CEC01FC01E851FC47E730F105A8F53D
:10369000EB58F24D0C94A92C26E241EE61EEC801E4
:1036A0000E946B1880911102877059F0F801858192
:1036B000882339F08091630382FF03C082E00E9477
:1036C000920CCDB7DEB7EAE00C94762C27E245EEFB
:1036D00065EEE5CF26E241EE60EEE1CF27E245EE72
:1036E00064EEDDCF26E241EE62EED9CF27E245EE71
:1036F00066EED5CF28E241E0EBCFF8018581882343
:1037000009F4F1C310920504CE019057839708F095
:10371000D6C384E090E00E941F2D909363038093B2
:103720006203FE01E150F047E232F10520F4E45873
:10373000F24D0C94A92C8091620381608093620306
:1037400095C0809163038860809363038FC08091EC
:1037500062038260F3CF809162038460EFCF809137
:1037600062038860EBCF809163038160EDCF80912D
:1037700063038260E9CF809162038061DFCF809133
:1037800062038062DBCF809162038064D7CF0E94A6
:103790006313809162038068D1CF809162038C6053
:1037A000CDCF809163038360CFCF809162038E7F02
:1037B000C5CF80916303877FC7CF809162038D7FE0
:1037C000BDCF809162038B7FB9CF80916203877FE9
:1037D000B5CF809163038E7FB7CF809163038D7FD8
:1037E000B3CF809162038F7EA9CF809162038F7DDA
:1037F000A5CF809162038F7BA1CF0E94631380913C
:1038000062038F779BCF80916203837F97CF8091F4
:1038100063038C7F99CF8091620382FB992790F993
:1038200021E0922790FB82F990FB83F987CF80916A
:103830006303982F909591708E7F892B90FB81F96F
:1038400083CF90916203892F8F7B96FF806476CF20
:103850000E94631390916203892F97FB87F9805828
:103860006DCF61E08EE090E00E94352D60916203A3
:103870007091630384E090E00E94532D0E946313D3
:1038800011CF60E0EFCF90916203892F8F7E94FF7C
:10389000806154CF90916203892F8E7F90FF816069
:1038A0004DCF90916303892F877F93FF88604CCF22
:1038B00085E314C385E320C380915A0380FF1EC0B3
:1038C000282F2E7F20935A0330915B0340915C0395
:1038D00050915D0360915E0370915F03809160037E
:1038E000909161030E943A0F0E940508809199020D
:1038F0008160809399020E940C08D4CE81608093ED
:103900005A0361E0869586950E94BC1ACBCE46E0AC
:103910005BE161E17BE10E94FF07C4CE41E15BE135
:1039200066E07BE1F8CF40EF5FE06AEF7FE0F3CF46
:103930004AEF5FE060EF7FE0EECF46ED5FE063EEE1
:103940007FE0E9CF43EE5FE066ED7FE0E4CF4CEB54
:103950005FE069EC7FE0DFCF49EC5FE06CEB7FE09C
:10396000DACF44E050E16EE170E1D5CF4EE150E1B5
:1039700064E070E1D0CF61E081E0C6CF64E082E036
:103980000E941D1B8FCE6AE085E0FACF0E94631370
:10399000FFEF24E33CE0F15020403040E1F700C06D
:1039A000000087E797E7909301088093000888E17B
:1039B0009AE00FB6F894A895809360000FBE90939C
:1039C0006000FFCF6FEF7FEF90E080E00E94532D0B
:1039D0000E947F168091630382FB882780F991E023
:1039E00089270E943810F8018581C081D181882300
:1039F00009F44DC0CE010E94D10BF82E682FCE01E4
:103A00000E94450CBE018F2D0E94830A0E94A20ACB
:103A1000D82FC92FA82EF801C580B680B2943FE0F8
:103A2000B32280911102877009F1EC2CCC20F9F0BF
:103A3000892F807F803469F080E28D0F8830B0F06C
:103A4000892F807E803229F4F1E0FD1778F4BB20C5
:103A500069F08091630382FF09C082E00E94920CAA
:103A6000809111028770EE24E3948111E12CDC2E09
:103A7000D2942FE0D2222BE02D1508F46DC0ED2D4D
:103A8000F0E0E256F24D0C94A92C80E0AACFCE01D2
:103A90000E94120CF82EB6CF3C2F3F70F32EC07F41
:103AA00019F0F29490EFF922CC20B9F0FF2069F0E0
:103AB00080E28D0F883010F0A11009C080911C02A7
:103AC000F82AF0921C020E94E20D8D2F43C08091D3
:103AD0001302F82AF0921302F6CF8D2F0E94791765
:103AE000FF20D1F1D05ED83010F0A11004C08F2D8E
:103AF0000E94C00B06C0F09480911302F822F0924D
:103B000013020E94E20D28C08C2F8F70F82EC07F08
:103B1000C03219F0F29480EFF822AA2059F091E017
:103B2000A91609F479C0CC2009F485C0BB2009F49A
:103B300047C0CBCF8091630382FD3EC0CC20B1F162
:103B4000FF2039F080911C02F82AF0921C020E949A
:103B5000E20D80E00E94D3172D2D2850330B243026
:103B6000310510F40E944407EE20A9F08091110263
:103B700080FD11C0F80115828695869586950E9474
:103B8000A90CC8010E942E1B809111028695869572
:103B900086950E94800C20E0F8014081518162816D
:103BA0007381848195810E94E10C8BCD80E00E941D
:103BB0007917FF2089F29BCFCC20A1F0B11004C06F
:103BC0008F2D0E94240EC8CFE1E0BE12C5CF809198
:103BD00012029F2D9823F91609F4BECFF82AF0920D
:103BE0001202BACFB110B8CF8F2D0E941D0E909146
:103BF00012028F2D892329F08F2D809589238093A0
:103C000012028091E5019F2D982309F4A5CFF0942D
:103C1000F822F092E501A0CFCC2029F0F5E0FB15C9
:103C200008F49ACFCDCF24E02B1508F495CF8F2D33
:103C30000E941D0E91CFBB20D1F339E3A31209C01E
:103C40008FEF97EEE3E081509040E040E1F700C055
:103C500000008D2F0E9479177FCF8C2F8695869537
:103C6000837069F0813009F077CF8D2F9C2F93708E
:103C7000C11002C080E090E00E94FA066DCF8D2F47
:103C80009C2F9370C11002C080E090E00E941F073B
:103C900063CF6C2D8D2F0E9495165ECF8C2F837075
:103CA00009F03FC0C11058CF4D2F4295469547703F
:103CB000440F440F2D2F2F7030E0042E02C0220F2E
:103CC000331F0A94E2F790E080E0D4FF09C08FE050
:103CD00090E002C0880F991F4A95E2F78095909571
:103CE000C695C695C370C23099F078F440916E02C3
:103CF00050916F02C13039F0822B932B842395238E
:103D00000E94B90C29CF242B352B822B932BF8CF73
:103D1000822B932B20916E0230916F028227932782
:103D2000EFCF8695CC2011F08C2F8170882309F479
:103D300013CF4D2F429546954770440F440F2D2FBA
:103D40002F7030E0042E02C0220F331F0A94E2F7D6
:103D500090E080E0D4FF09C08FE090E002C0880FBF
:103D6000991F4A95E2F780959095C695C695C370C0
:103D7000C23099F078F44091640350916503C130EA
:103D800039F0822B932B842395230E947B0CE4CE65
:103D9000242B352B822B932BF8CF822B932B209126
:103DA00064033091650382279327EFCFCF70CC2037
:103DB00029F08C2F0E94A90C8D2F03CF8D2F0E94EC
:103DC0001D0E8C2F0E94800CC7CE8D2FF2EFAF16E8
:103DD00099F1FA1570F020EFA216D1F031EFA31689
:103DE00091F0CC2009F45BC0B1106FCE8C2F8F7195
:103DF00027C093EFA91639F1E4EFAE12F2CF80910C
:103E0000630382FD2EC08C2F8F71CC20D9F218C095
:103E1000CC2069F0F4E0FB1508F49ECECF7181E070
:103E200090E002C0880F991FCA95E2F7B8CF25E04D
:103E30002B1508F491CEF2CF8C2F8F71C110C2CF09
:103E40000E94A90C89CE90E080E0CC2009F49DCF9F
:103E5000CF7181E090E002C0880F991FCA95E2F708
:103E600094CFCC2089F0CF718C2F0E94A90C809127
:103E7000630382FF07C038E0C39FC0011124836041
:103E8000809311028C2FDCCF81E00E94920C81E0A4
:103E90008B1508F061CE82E00E94920C5DCEBB20B3
:103EA00059F0893309F0D5CE9FEFE7EEF3E091505A
:103EB000E040F040E1F7CBCE8C2F8F7183CFC6313D
:103EC000FCE7DF07E1F480911C028A7A91E009F4B3
:103ED00090E09093E4018111EBCC89E20E94E1062D
:103EE0000E94E20DDFCBC6312CE7D20741F580916D
:103EF000E4018111DFCC89E20E94D406F1CFC33006
:103F00003CE7D30709F45ECD50F4C1159CE7D9070F
:103F100009F43CCDC130DC4709F45ACD64CDCB3532
:103F2000FCE7DF0709F4B1CDCC352CE7D20709F463
:103F300051CDCA35DC4709F056CD81E052CD809194
:103F40001C028272FE01E052F847E531F10508F0EB
:103F50004ACDE655F24D0C94A92CCF93DF93809176
:103F60001002807F09F04DC080910F02882309F470
:103F700048C0E09102045091C903C0910B02D09156
:103F80000A0260910C0270910D0247E05E17C9F1C0
:103F90008E2F90E0E49FF0011124E653FC4F248122
:103FA000222391F1489FF001499FF00D1124DF0178
:103FB000A653BC4F11962C9111972C1325C02C9110
:103FC0002D1322C015962C91159721111DC0129604
:103FD0002D913C91261B370B283C3105A8F480918C
:103FE00010028F70806180931002E053FC4F80813B
:103FF0008F70806180838AE092E00E942E1B0E9475
:10400000C70BDF91CF910895FC013196E770BECFC9
:10401000A4E1B0E0EEE0F0E20C94582C8C0186E0D4
:10402000F801DE011F9601900D928A95E1F7F801E3
:104030008481E5809AE0A92E92E0B92E90910E023B
:10404000911128C0882319F1EE20F1F0C8010E94D7
:10405000BE0CF82E8823C1F087E0F801D50101904D
:104060000D928A95E1F780910E02813031F48091B2
:104070000A0290910B020E94050C0E94AD1F8F2D29
:104080006496ECE00C94742CC8010E942E1BFF2453
:10409000F394F5CFD080C18082809380F0900F029E
:1040A00020910C0230910D02A401421B530BFF2002
:1040B00009F4D9C0483C510508F092C08823F9F2B0
:1040C00090910B0280911002282F207F09F056C09A
:1040D000C91214C090910A02D91210C0E11048C050
:1040E0008F708061809310028AE092E00E942E1B04
:1040F00080911002F8018683F12CC1CFE11038C005
:104100006C2D8D2D0E944A056C2D8D2D0E944A0527
:10411000E82E8111F1CFDF86C88A8F8598890E94A9
:10412000050C292F22952F70243058F49F702230CF
:1041300088F0992399F0F8019681907F79F4FE2C0C
:104140009ECF2A5F2F70223068F0C8010E942E1B7C
:10415000EF2CF5CF992311F0882389F3805E883006
:1041600070F3F3CF803F58F3815F833070F7E7CF70
:1041700080911002816080931002BECFC91207C0E7
:1041800090910A02D91203C0EE2009F48DC0C80133
:104190000E94BE0C882309F477CFEE2009F474CF77
:1041A00080911002803288F020910A0230910B0237
:1041B000398728879B868A8690910E029C871D8668
:1041C0008E87CE0108960E942E1B87E0F801AAE098
:1041D000B2E001900D928A95E1F70E94AD1F57CF92
:1041E00090911002292F207F51F48AE092E00E94E2
:1041F0002E1B87E0F50111928A95E9F77DCF882380
:1042000009F43DCF80910B028C1110C080910A02FD
:10421000D8120CC0E1100AC09683C8010E942E1B60
:1042200087E0F50111928A95E9F729CFC8010E942C
:10423000BE0C882309F428CFEE2009F425CF809105
:104240001002803210F220910A0230910B023A8360
:1042500029839C828B8290910E029D831E828F8384
:10426000CE010196B0CF483C5105D0F6882309F421
:104270000ECFFE2CEE2009F407CF80910B028C119B
:1042800020C080910A02D8121CC08091100280FDCB
:104290000FC0982F907F61F08683903F31F0982F68
:1042A000907F905F8F70892B8683C8010E942E1BA0
:1042B00087E0F801AAE0B2E001900D928A95E1F75B
:1042C000DECEC8010E94BE0C81117FCF809110020A
:1042D000816080931002C8010E942E1BD0CEABE1FA
:1042E000B0E0E5E7F1E20C94602C4E8B5F8B688FB9
:1042F000798F8A8F9B8F192F9111109213021D8A2B
:1043000086E0FE017696DE011F9601900D928A9559
:10431000E1F70A8D002341F021E04F855889698932
:104320007A89C8010E94E10C0B8B1C8B87E0FE018F
:104330003F96DE01189601900D928A95E1F7CE0125
:1043400008960E94082081112AC087E0FE01389655
:10435000DE01119601900D928A95E1F78C858823F4
:10436000F1F02091C90330E0C901019687709927C7
:104370004091020448171906E9F097E0929FD00196
:10438000939FB00D1124A653BC4FFE0131960190AE
:104390000D929A95E1F78093C9030E94C70B17E02D
:1043A000809102049091C903891312C06B96E4E0D6
:1043B0000C947C2C0E9463131092C9031092020487
:1043C00087E0EAE0F2E0DF011D928A95E9F7E7CFA6
:1043D000819FC001112486539C4F0E94082088238E
:1043E00029F38091020490E00196877099278093C9
:1043F0000204D6CFA5E1B0E0E0E0F2E20C94572C45
:104400008E01045F1F4F8AE0F80111928A95E9F747
:1044100080EAC82E81E0D82EF12CE12CAA24A394A6
:10442000B12C2CEA822E21E0922EF60181916F01AF
:104430008F3F09F442C0F894E82FE295EF70F0E066
:1044400021A18F70A50102C0440F551F8A95E2F784
:10445000CA01922F982B91A392A18095892382A3C0
:10446000789400C0E5EAF1E0712C31E021912F3F12
:1044700009F49CC0A22FA295AF70B0E090968C91E9
:1044800090E02F7002C0959587952A95E2F780FD00
:104490008DC0832F782A330F8E169F0639F7F601C9
:1044A000319780818F3F11F00E94610950EA5A953F
:1044B000F1F7F801EE0DFF1D70828FEFE81AF80A90
:1044C00095E0E916F10409F0B0CF4AE050E0B801F8
:1044D00082E692E00E94FB2C009741F02AE0F8016E
:1044E000A2E6B2E001900D922A95E1F700916D02EB
:1044F00010E00F581D4F892B09F45AC081E08093BA
:1045000021020E9430139093200280931F02D12C2D
:10451000C090A503FE0131967F0185E0CC2009F40F
:104520009DC011928A95E9F780915D028A3008F06A
:1045300063C048EF51E1B701C8010E94B70E88235C
:1045400009F47BC04BEA51E1B701C8010E94B70EE4
:10455000882309F472C040EB50E1B701C8010E9402
:10456000B70E882309F469C04FE450E1B701C801D0
:104570000E94B70E882309F460C010925D028091FA
:104580006C0290E045E050E0B7018F589D4F0E94CB
:10459000FB2C21E020932802892B09F042C0C12C7A
:1045A0008C2D8D296596EDE00C94732C80E072CFF4
:1045B000D0902102DD2009F4AACF80911F029091B2
:1045C00020020E942113059708F4A1CF45E050E096
:1045D00062E672E0C8010E94FB2C892B59F085E04D
:1045E000E2E6F2E0D80101900D928A95E1F710928F
:1045F00021028ECFD12CFBCF8091220290912302F9
:104600000E942113843F914008F093CF80912802AB
:10461000882329F285E0F70111928A95E9F7109233
:104620002802A0916C02B0E0AF58BD4F85E0F701C1
:1046300001900D928A95E1F7B3CF80915D028F3F93
:1046400031F08F5F80935D028A3008F498CF0E942A
:1046500030139093230280932202D8CFF801ACE369
:10466000B2E001900D928A95E1F765E070E08CE38D
:1046700092E00E94A50780933B0288E0E0E9F3E026
:10468000A2E4B2E001900D928A95E1F768E070E053
:1046900082E492E00E94A5078093410280904A0242
:1046A00090904B02A0904C02B0904D028091240259
:1046B00090912502A0912602B091270288169906B2
:1046C000AA06BB06B1F08092240290922502A09225
:1046D0002602B09227020E94C806861A970AA80AE4
:1046E000B90A80925E0290925F02A0926002B0923C
:1046F00061028BE0EEE4F2E0D70101900D928A9521
:10470000E1F72981822F86958695FA80EB80BC801F
:104710000A851B8510925802112309F441CF10FF1E
:104720000AC090915A0320FF1AC0916090935A03D7
:1047300060E00E94BC1A11FF06C020E04B2D6E2DD8
:104740008F2D0E94600F12FF04C00023A9F00E9469
:10475000A01A13FF25CF81E08093940221CF9E7F82
:1047600090935A030E94050880919902816080937A
:1047700099020E940C08DFCF0E940508EACFA6E04C
:10478000B0E0E5ECF3E20C94602C0E9430138C0155
:1047900080911D0290911E028017910781F019826D
:1047A0001A820E943013682F49815A81792F80E044
:1047B00090E00E946F2110931E0200931D02269626
:1047C000E4E00C947C2C1F921FB61F9211248F934F
:1047D0009F93AF93BF938091AD03811113C08091DC
:1047E000AE039091AF03A091B003B091B103419695
:1047F000A11DB11D8093AE039093AF03A093B003AE
:10480000B093B103BF91AF919F918F911F901FBE45
:104810001F901895CDB7DEB72F970FB6F894DEBF6F
:104820000FBECDBF85B7806885BF85B7806885BF5F
:1048300084B7877F84BF0FB6F894A89580916000F5
:10484000886180936000109260000FBE80E890E065
:104850000FB6F89480936100909361000FBE8BE5D2
:1048600099E09093DB018093DA010E9469050E9430
:104870000A068091E20084608093E200789480913F
:10488000BF038823A1F01091E9001F709091EC0004
:10489000892F817090FD80E8182B1092E90080919B
:1048A000E80083FD0E948A131F701093E90082E0E4
:1048B00084BD93E095BD9AEF97BD80936E001092F2
:1048C0005E0210925F02109260021092610280916B
:1048D000D80080618093D8002AE12A95F1F700C0C2
:1048E0008091D900182F117080FD04C00E946905C5
:1048F0001092BF031093A50322982A9A579A5F98A3
:1049000035E03A95F1F7000083B182FB882780F902
:1049100057985F9A40EA4A95F1F78093A6038093EF
:104920003801882309F43BC21092440180E280934D
:1049300045018091A50381110E94DC2AE0E9F3E0A2
:1049400088E0DF011D928A95E9F78091380191E0B6
:10495000892780938B028091380190938E028091F9
:10496000380160E080E00E94C80761E080E00E94BA
:10497000C807EFE8F1E03197F1F700C0000010E060
:1049800080918E02181708F40EC280913801809130
:10499000380195E0811190E090936D0285E0891BCC
:1049A00080936C0200EA11E0E5EAEE2EE1E0FE2ED3
:1049B000D8018D918D018F3F11F00E946109E016A1
:1049C000F106B1F705EA11E07CEAE72E71E0F72E77
:1049D000F80181918F018F3F11F00E946109E0166B
:1049E000F106B1F78AE0E1E7F2E0DF01282F1D923E
:1049F0002A95E9F7E2E6F2E0DF011D928A95E9F7F0
:104A000090E080E00E941F2D863E9E4F09F466C014
:104A100066EE7EEF90E080E00E94532D60E082E041
:104A200090E00E94352D81E090E090936F0280939A
:104A30006E0261E083E090E00E94352D60E074E159
:104A400084E090E00E94532D60E086E090E00E94B8
:104A5000352D60E087E090E00E94352D40E050E089
:104A6000BA0188E090E00E94472D60E084E290E087
:104A70000E94352D60E087E190E00E94352D60E0D6
:104A80008CE090E00E94352D60E08DE090E00E9487
:104A9000352D19821A821B821C821D821E821F8262
:104AA000188648E050E068E170E0CE0101960E946F
:104AB000252D40E050E0BA0180E290E00E94472DB1
:104AC00040E050E0BA018FE090E00E94472D40E0C6
:104AD00050E0BA0183E190E00E94472D82E090E02F
:104AE0000E94112D80937B0284E090E00E941F2D94
:104AF000909363038093620383E090E00E94112D02
:104B000090E00E94B90C1092860380E8809306041E
:104B10000E947A296BE070E087E692E00E94EA0E3C
:104B20008823E9F18091860365E070E081FD4DC145
:104B300082E692E00E94EA0E882389F16DE070E03F
:104B400080E592E00E94EA0E882349F10E94C8069F
:104B5000605A75418F4F9F4F60938803709389030C
:104B600080938A0390938B03E9E0F4E080E092E085
:104B7000DF019C011D9221503040E1F7F0931006B7
:104B8000E0930F068FEF9FEF909308048093070444
:104B900081E080938F0380938C0310928703809130
:104BA0007002811184C088E090E00E94192D4B01B1
:104BB0005C0184E290E00E94112D282F30E040E05B
:104BC00050E060E070E080E090E000E20E94AF2CF6
:104BD000282939294A295B2920935A0330935B03FA
:104BE00040935C0350935D0360935E0370935F0397
:104BF0008093600390936103309199023360309306
:104C000099022C7F09F043C025E020935A031092AB
:104C10005B032FEF20935C0328E720935D03109242
:104C20005E0325E030E04FEF58E760E00E943A0F66
:104C300088E090E00E94192D6B017C0184E290E0F5
:104C40000E94112D282F30E040E050E060E070E03D
:104C500080E090E00E94AF2CB22FA32FF42FE52F1D
:104C60005B0197018601BC29A12BFE29E32BB093A0
:104C70005A03A0935B03F0935C03E0935D0360939E
:104C80005E03B0925F0380936003909361030E9480
:104C900049080E94050880915A0380FF05C060E022
:104CA000869586950E94BC1A81E08093700280915F
:104CB000A503811102C00E94DF2A89E391E090934D
:104CC000AA038093A90358E1652E712CFF24F39465
:104CD00064E0A62EB12C8091BF0300E112E1853083
:104CE00009F4B1C00E94FA210CE712E031E7832EEB
:104CF00032E0932E4CEAC42E41E0D42E9601B4014A
:104D0000F8019191DB018D91BD01D9014D919D017A
:104D10008423B2E0E638FB0709F49FC0981789F3B3
:104D2000E091A503EF87512CD401ED904D01F601E0
:104D300081916F01E822D8012D908D012E1431F15F
:104D4000412C332433942E24822D8321B9F0BF8546
:104D5000BB23A1F049865A860E9430139C878B871B
:104D6000FD8691E08E2D832109F490E09E87498590
:104D70005A856B857C858D850E946F214394330C09
:104D8000E7E04E12E1CFF8013197E0825394FAE068
:104D90005F12CACF0E947809EE24E39463C080E2D8
:104DA00080934401C4CD60E0812F0E94BB07082F8F
:104DB00061E0812F0E94BB07E12FF0E0E457FD4F37
:104DC000880F802B80831F5FDBCD8DE592E0B2CE14
:104DD0008091BF03843021F10E94F70E1092AD0341
:104DE00030E40FB6F894A895609260000FBE30933F
:104DF000600083B7817F846083BF83B7816083BF96
:104E00007894889583B78E7F83BF0FB6F894A89562
:104E100080916000886180936000109260000FBEF6
:104E20008091BE03882379F00E94FA21E1E7F2E045
:104E3000ACEAB1E081919D91892309F0E5C142E09E
:104E4000EB37F407B9F78091BF03853009F4C0CF81
:104E50000E9463130E94440745CF981361CF0E94BC
:104E6000BF23E12C80919802882309F464C08091CB
:104E70009702E0915A03E695E695E81BE0939302CA
:104E8000823009F083C0F0E0EB58FD4FE4910E2F23
:104E900010E025EFC22E28E0D22E809194028823C4
:104EA00061F0109294020E94951A9093920280935E
:104EB000910210929602109295020E94951AE0912A
:104EC0009102F09192029C012E1B3F0B2F3F3F4716
:104ED00090F5209188022223B1F01092880220914F
:104EE000860230918702821B930B8F3F9F4758F4B5
:104EF000205D3A4830938702209386028091990280
:104F000088608093990280909502909096020E0F8F
:104F10001F1F109392020093910281E992E0F60123
:104F200009958091950290919602892B21F4892808
:104F300011F0F0928802C090A503CC2019F00E94D5
:104F4000CB18C82E80918F02882351F010928F02C7
:104F500080919203809393038091900380939103B7
:104F6000D12C80918E02D81630F18091A503882330
:104F700019F00E94CB18C82ACC2009F458C00E940E
:104F800078090E94FC180E94120F55C0853061F408
:104F9000E695F0E0EE58FD4FE4910E2F10E09BE116
:104FA000C92E99E0D92E79CF00ED17E083ECC82EF9
:104FB00086E0D82E72CF61E08D2D0E94BB07182F9E
:104FC00060E08D2D0E94BB07E12FEE0F8E2B0D2D83
:104FD00010E0D801A457BD4FEC919E2F9370891714
:104FE00021F1EE0FEE0FE82BEC9380918B028D0DEB
:104FF000EF70F0E0EA54FE4F07571D4F9080D80144
:105000009C91990E9C92B3E060E0B91524F0EDEF0D
:105010009E161CF461E00E94DB07892D990C990B08
:10502000B5010E94952CD8018C93D3949ACF0E94FD
:10503000FC18E110A8CF86E0EFE9F3E0DE0111965D
:1050400001900D928A95E1F7C090A0031091A10301
:105050000091A203D090A303E090A4031092A103B7
:105060001092A2031092A3031092A403812F802B0D
:1050700009F445C080919D0390919E030E942113E5
:105080009C0190919803992309F4DDC025313105E5
:10509000B0F19F3F19F09F5F90939803112359F04F
:1050A0000E9477079FEF11160CF491E0899F802DE5
:1050B00011248093A103002359F00E94770791E007
:1050C00010160CF09FEF899F802D11248093A2036E
:1050D0008091A103882399F09090A203992079F000
:1050E0000E949707882309F483C08093A103892D28
:1050F0000E949707882309F47EC08093A2038D2D18
:105100008E2909F444C080919B0390919C030E94D6
:1051100021139C0190919903992309F48FC02135A3
:105120003105A8F19F3F19F09F5F90939903DD200F
:1051300059F00E9455079FEF1D140CF491E0899FD0
:10514000802D11248093A303EE2059F00E9455076F
:1051500091E01E140CF09FEF899F802D1124809305
:10516000A4038091A303882391F0D090A403DD20B1
:1051700071F00E949707882309F440C08093A3032D
:105180008D2D0E9497078823E1F18093A4038091DD
:10519000A003C81216C08091A103882311F0181330
:1051A00010C02091A203222311F020130AC0909175
:1051B000A403992311F09E1104C03091A30333235B
:1051C000C9F10E943C1386E0FE013196AFE9B3E0DD
:1051D00001900D928A95E1F70E9444079091900208
:1051E000891709F478CD809390020E94C80673CD88
:1051F000F092A1037CCFF092A20381CFF092A3039F
:10520000BFCFF092A403C3CF09BD19BD09B400FEFE
:10521000FDCF8091D8008F7D8093D8008091E000F1
:1052200082608093E0008091E00081FDFCCF0E94CD
:10523000631309CE822B892B31F2C3CF2B3031057A
:1052400008F072CFA4CF2B30310508F024CF57CF10
:10525000EF92FF920F931F93CF93DF93182FEB01E1
:105260001092BC0084EA8093BC000E9430137C0141
:105270008091BC0087FF27C08091B900887F88306B
:1052800029F08091B900887F803189F51093BB00A7
:1052900084E88093BC000E9430138C018091BC0094
:1052A00087FF1EC02091B900287F90E080E0283160
:1052B00091F081E090E0203411F490E080E091954D
:1052C0008195910908C0C7010E942113C817D90709
:1052D00078F68EEF9FEFCDB7DEB7E6E00C947A2C30
:1052E000C8010E942113C817D907C0F6F2CF8FEF6B
:1052F0009FEFF1CF1092B9008CE08093B800089531
:105300000F931F93CF93DF93EB018093BB0084E84F
:105310008093BC000E9430138C018091BC0087FFF9
:1053200011C02091B900287F81E090E0283211F46B
:1053300090E080E0919581959109DF91CF911F9147
:105340000F910895CF3FDC0741F3C8010E9421135C
:10535000C817D90710F78EEF9FEFEFCFB0E0A0E0AE
:10536000E4EBF9E20C94572C782E5B016A01890179
:105370000E9430134C01C1E0D0E00431110558F017
:10538000C5E0D0E00F3F100731F0C80164E170E0E4
:105390000E943E2CEB01BE01872D0E9428297C0132
:1053A00097FF09C00F3F1007B1F3C4010E942113FA
:1053B0000817190780F7E501CA0CDB1CCC15DD05C1
:1053C00011F0F7FE09C084E98093BC00C701CDB796
:1053D000DEB7EDE00C94732CB80189910E9480290E
:1053E0007C01ECCFB0E0A0E0E8EFF9E20C94572CA0
:1053F000782E5B016A0189010E9430134C01C1E0E3
:10540000D0E00431110558F0C5E0D0E00F3F10079F
:1054100031F0C80164E170E00E943E2CEB01BE0156
:10542000872D0E9428297C0197FF09C00F3F100794
:10543000B1F3C4010E9421130817190780F7E50191
:10544000CA0CDB1CCC15DD0511F0F7FE09C084E9A0
:105450008093BC00C701CDB7DEB7EDE00C94732C90
:10546000FE018491B8010E9480297C012196EACF37
:10547000B0E0A0E0EEE3FAE20C94562C682E762E13
:105480005A0169010E9430134C01C1E0D0E004319F
:10549000110558F0C5E0D0E00F3F100731F0C8010A
:1054A00064E170E00E943E2CEB01BE01862D0E945B
:1054B00028297C0197FF1DC00F3F1007B1F3C401DD
:1054C0000E9421130817190780F784E98093BC0014
:1054D000C701CDB7DEB7EEE00C94722CB80189910C
:1054E0000E9480297C01CC16DD0679F3F7FEF6CF09
:1054F000ECCFB801872D0E9480297C01E501CA0C00
:10550000DB1CF1CF8EE14A9B02C08150E1F74A9B40
:10551000FECF08955A9880E28A95F1F75A9A089535
:10552000FC013BE03A95F1F798E020E080E031E0C3
:1055300040E14A95F1F7880F4A9B02C0816023271A
:1055400042E04A95F1F7000040E14A95F1F79150A9
:1055500079F790E19A95F1F799B132E03A95F1F740
:10556000000040E14A95F1F792FB992790F99227C4
:105570002081920F90830895A1E0B0E0E2ECFAE27E
:105580000C945E2C19828C017C01E60EF11C0E1528
:105590001F0541F481E09981911180E02196E6E0B8
:1055A0000C947A2C0E94822ACE0101960E94902AA5
:1055B000F80181938F01EBCF529A5A9A089552982D
:1055C0005A9AEA9AE9E6F0E080818F7C8083089518
:1055D0006150770B91E001C0990F6A95EAF720E0DE
:1055E00031E0911108C0222391F05A9A80E28A9505
:1055F000F1F75A980895492F482339F05A9A2327EA
:1056000040E24A95F1F79695ECCF5A98F9CF5A981F
:10561000EDCFFF920F931F93CF93DF93EC018C019B
:10562000060F111DC017D10729F4CDB7DEB7E5E08D
:105630000C947B2CF9900E948A2A68E08F2D0E949E
:10564000E82AF0CF1F920F920FB60F9211240F93FA
:105650001F932F933F934F935F936F937F938F93FA
:105660009F93AF93BF93EF93FF93CF93DF930F92EB
:10567000CDB7DEB719820E94822ACE0101960E9420
:10568000902A082F069506950695282F22952570B5
:10569000902F9570290F922F937026952695920F33
:1056A000982797708981982B09F05CC0083008F022
:1056B00059C080E18A95F1F75A9A529A82E08A9508
:1056C000F1F700C05A9888E0089F80011124D801A2
:1056D000A050BF4F1696ED91FC9117973097A9F007
:1056E00060919E0170919F0114962D913C911597A8
:1056F000260F371F11968D919C911297680F791F75
:1057000013964C9113978C910995F801E050FF4F37
:105710006381662351F020919E0130919F01848125
:105720009581820F931F0E94092B0E948A2A80E193
:105730008A95F1F75A9852985A9A80E18A95F1F72A
:10574000F801E050FF4F6081662351F020919E01E7
:1057500030919F0181819281820F931F0E94BC2A08
:105760000E94822A0F90DF91CF91FF91EF91BF911C
:10577000AF919F918F917F916F915F914F913F91E9
:105780002F911F910F910F900FBE0F901F901895A2
:105790000F931F93CF93DF93EC0108970CF04CC04D
:1057A000F894529A5A9885E08A95F1F700009C2F58
:1057B000969595708C2F8570980F892F837096958C
:1057C000969523E0CC0FDD1F2A95E1F7980F8E0107
:1057D000092B0E948A2A00C068E0802F0E94E82AD4
:1057E00080E18A95F1F752985A9A4A9B1EC087E049
:1057F00090E04A991CC0FE01E050FF4F6381662390
:10580000F9F020919E0130919F0184819581820F52
:10581000931F0E94BC2A811113C0529A5A9A7894FD
:10582000DF91CF911F910F91089500C0DECF0197B6
:1058300029F4529A5A9A789480E0F2CF00C0D9CFD6
:105840000E94822A80E28A95F1F75A98529A80E162
:105850008A95F1F7C050DF4F6881662351F020919F
:105860009E0130919F0189819A81820F931F0E942E
:10587000092B0E948A2A789481E0D2CFAA1BBB1BF5
:1058800051E107C0AA1FBB1FA617B70710F0A61B40
:10589000B70B881F991F5A95A9F780959095BC0161
:1058A000CD0108952F923F924F925F926F927F9217
:1058B0008F929F92AF92BF92CF92DF92EF92FF9220
:1058C0000F931F93CF93DF93CDB7DEB7CA1BDB0BCC
:1058D0000FB6F894DEBF0FBECDBF09942A88398871
:1058E00048885F846E847D848C849B84AA84B98478
:1058F000C884DF80EE80FD800C811B81AA81B98184
:10590000CE0FD11D0FB6F894DEBF0FBECDBFED0197
:105910000895991B79E004C0991F961708F0961B0B
:10592000881F7A95C9F78095089597FB072E16F47E
:10593000009407D077FD09D00E943E2C07FC05D0CB
:105940003EF4909581959F4F0895709561957F4F96
:105950000895EE0FFF1F0590F491E02D0994002E9D
:10596000083090F0982F872F762F652F542F432FD4
:10597000322F22270850F4CF220F331F441F551F08
:10598000661F771F881F991F0A95B2F7002D08958B
:1059900097FD1094002E083098F00850232F342FD4
:1059A000452F562F672F782F892F912DF4CF1594DF
:1059B0009795879577956795579547953795279547
:1059C0000A95AAF71124002D0895FB01DC0102C0FD
:1059D00005900D9241505040D8F70895FC01415078
:1059E000504030F001900616D1F73197CF0108955D
:1059F000882799270895FB01DC0104C08D9101904F
:105A0000801921F441505040C8F7881B990B089524
:105A1000FB01DC0102C001900D9241505040D8F7CB
:105A20000895F999FECF92BD81BDF89A992780B566
:105A30000895A6E1B0E044E050E00C945B2DA8E1AD
:105A4000B0E042E050E00C945B2DDC01A40FB51FE8
:105A50004150504048F0CB01840F951F2E910E9479
:105A6000362D41505040D0F70895262FF999FECF9A
:105A700092BD81BDF89A019700B4021639F01FBAA1
:105A800020BD0FB6F894FA9AF99A0FBE08950396BE
:105A9000272F0E94362D0E94352D252F0E94362D4E
:105AA000242F0C94362D0196272F0E94362D0C940E
:105AB000352DDC01CB01FC01F999FECF06C0F2BD0A
:105AC000E1BDF89A319600B40D9241505040B8F7BC
:105AD0000895F894FFCF691491142916911429168A
